{
  "transactions": [
    {
      "hash": "0x80274f17e048dfbfc0ee9f61c79d0caac9d48f1da80e76325c8c36ce25a5db1c",
      "transactionType": "CREATE",
      "contractName": "Registry",
      "contractAddress": "0x41304f0bd2774fb84ba315094d8d33974dc19fc9",
      "function": null,
      "arguments": null,
      "transaction": {
        "from": "0x28fe8942e15964ec788c3a2422c324275ab5b334",
        "gas": "0x356ce",
        "value": "0x0",
        "input": "0x60808060405234601557610214908161001a8239f35b5f80fdfe60806040526004361015610011575f80fd5b5f3560e01c806304433bbc1461010157631b1c2c7f1461002f575f80fd5b346100fd5760403660031901126100fd576004356001600160a01b038116908190036100fd576024359067ffffffffffffffff82116100fd5760606100997f8d32db8be4214ad2a32e6ae8c7dc8dbc43aff8635779cdc39abaf9d4d82929aa933690600401610162565b91604051835190602081818701938085835e81015f815203019020826bffffffffffffffffffffffff60a01b8254161790556040519384928352604060208401525180918160408501528484015e5f828201840152601f01601f19168101030190a1005b5f80fd5b346100fd5760203660031901126100fd5760043567ffffffffffffffff81116100fd576101346020913690600401610162565b8160405191805191829101835e5f90820190815281900382019020546040516001600160a01b039091168152f35b81601f820112156100fd5780359067ffffffffffffffff82116101ca5760405192601f8301601f19908116603f0116840167ffffffffffffffff8111858210176101ca57604052828452602083830101116100fd57815f926020809301838601378301015290565b634e487b7160e01b5f52604160045260245ffdfea264697066735822122042ac34a87c3e88880c35d4e22a61849c65e432e089b29558679a834f5f26173c64736f6c634300081c0033",
        "nonce": "0x20",
        "chainId": "0x14a34"
      },
      "additionalContracts": [],
      "isFixedGasLimit": false
    },
    {
      "hash": "0x190ff299355beeda669034d175c9277ad283875e624ff04b83262c1e93283165",
      "transactionType": "CREATE",
      "contractName": "KalboToken",
      "contractAddress": "0xe0dbd2a4beeb21e78da01e6a95c1fe373cff829f",
      "function": null,
      "arguments": null,
      "transaction": {
        "from": "0x28fe8942e15964ec788c3a2422c324275ab5b334",
        "gas": "0x9c5a4",
        "value": "0x0",
        "input": "0x6080604052346103b857604080519081016001600160401b038111828210176102cb576040908152600b82526a25b0b63137902a37b5b2b760a91b602083015280519081016001600160401b038111828210176102cb5760405260058152644b414c424f60d81b602082015281516001600160401b0381116102cb57600354600181811c911680156103ae575b60208210146102ad57601f811161034b575b50602092601f82116001146102ea57928192935f926102df575b50508160011b915f199060031b1c1916176003555b80516001600160401b0381116102cb57600454600181811c911680156102c1575b60208210146102ad57601f811161024a575b50602091601f82116001146101ea579181925f926101df575b50508160011b915f199060031b1c1916176004555b33156101cc576002546c0c9f2c9cd04674edea4000000081018091116101b857600255335f525f60205260405f206c0c9f2c9cd04674edea4000000081540190556040516c0c9f2c9cd04674edea4000000081525f7fddf252ad1be2c89b69c2b068fc378daa952ba7f163c4a11628f55a4df523b3ef60203393a360405161060790816103bd8239f35b634e487b7160e01b5f52601160045260245ffd5b63ec442f0560e01b5f525f60045260245ffd5b015190505f80610119565b601f1982169260045f52805f20915f5b8581106102325750836001951061021a575b505050811b0160045561012e565b01515f1960f88460031b161c191690555f808061020c565b919260206001819286850151815501940192016101fa565b60045f527f8a35acfbc15ff81a39ae7d344fd709f28e8600b4aa8c65c6b64bfe7fe36bd19b601f830160051c810191602084106102a3575b601f0160051c01905b8181106102985750610100565b5f815560010161028b565b9091508190610282565b634e487b7160e01b5f52602260045260245ffd5b90607f16906100ee565b634e487b7160e01b5f52604160045260245ffd5b015190505f806100b8565b601f1982169360035f52805f20915f5b868110610333575083600195961061031b575b505050811b016003556100cd565b01515f1960f88460031b161c191690555f808061030d565b919260206001819286850151815501940192016102fa565b60035f527fc2575a0e9e593c00f959f8c92f12db2869c3395a3b0502d05e2516446f71f85b601f830160051c810191602084106103a4575b601f0160051c01905b818110610399575061009e565b5f815560010161038c565b9091508190610383565b90607f169061008c565b5f80fdfe6080806040526004361015610012575f80fd5b5f3560e01c90816306fdde03146103ef57508063095ea7b31461036d57806318160ddd1461035057806323b872dd14610271578063313ce5671461025657806370a082311461021f57806395d89b4114610104578063a9059cbb146100d35763dd62ed3e1461007f575f80fd5b346100cf5760403660031901126100cf576100986104e8565b6100a06104fe565b6001600160a01b039182165f908152600160209081526040808320949093168252928352819020549051908152f35b5f80fd5b346100cf5760403660031901126100cf576100f96100ef6104e8565b6024359033610514565b602060405160018152f35b346100cf575f3660031901126100cf576040515f6004548060011c90600181168015610215575b602083108114610201578285529081156101e55750600114610190575b50819003601f01601f191681019067ffffffffffffffff82118183101761017c57610178829182604052826104be565b0390f35b634e487b7160e01b5f52604160045260245ffd5b905060045f527f8a35acfbc15ff81a39ae7d344fd709f28e8600b4aa8c65c6b64bfe7fe36bd19b5f905b8282106101cf57506020915082010182610148565b60018160209254838588010152019101906101ba565b90506020925060ff191682840152151560051b82010182610148565b634e487b7160e01b5f52602260045260245ffd5b91607f169161012b565b346100cf5760203660031901126100cf576001600160a01b036102406104e8565b165f525f602052602060405f2054604051908152f35b346100cf575f3660031901126100cf57602060405160128152f35b346100cf5760603660031901126100cf5761028a6104e8565b6102926104fe565b6001600160a01b0382165f818152600160209081526040808320338452909152902054909260443592915f1981106102d0575b506100f99350610514565b83811061033557841561032257331561030f576100f9945f52600160205260405f2060018060a01b0333165f526020528360405f2091039055846102c5565b634a1406b160e11b5f525f60045260245ffd5b63e602df0560e01b5f525f60045260245ffd5b8390637dc7a0d960e11b5f523360045260245260445260645ffd5b346100cf575f3660031901126100cf576020600254604051908152f35b346100cf5760403660031901126100cf576103866104e8565b602435903315610322576001600160a01b031690811561030f57335f52600160205260405f20825f526020528060405f20556040519081527f8c5be1e5ebec7d5bd14f71427d1e84f3dd0314c0f7b2291e5b200ac8c7c3b92560203392a3602060405160018152f35b346100cf575f3660031901126100cf575f6003548060011c906001811680156104b4575b602083108114610201578285529081156101e5575060011461045f5750819003601f01601f191681019067ffffffffffffffff82118183101761017c57610178829182604052826104be565b905060035f527fc2575a0e9e593c00f959f8c92f12db2869c3395a3b0502d05e2516446f71f85b5f905b82821061049e57506020915082010182610148565b6001816020925483858801015201910190610489565b91607f1691610413565b602060409281835280519182918282860152018484015e5f828201840152601f01601f1916010190565b600435906001600160a01b03821682036100cf57565b602435906001600160a01b03821682036100cf57565b6001600160a01b03169081156105be576001600160a01b03169182156105ab57815f525f60205260405f205481811061059257817fddf252ad1be2c89b69c2b068fc378daa952ba7f163c4a11628f55a4df523b3ef92602092855f525f84520360405f2055845f525f825260405f20818154019055604051908152a3565b8263391434e360e21b5f5260045260245260445260645ffd5b63ec442f0560e01b5f525f60045260245ffd5b634b637e8f60e11b5f525f60045260245ffdfea264697066735822122017a19901e1b913d80c42c728db9acb9118c7f5ea28f4b8aea4022f7148c0019a64736f6c634300081c0033",
        "nonce": "0x21",
        "chainId": "0x14a34"
      },
      "additionalContracts": [],
      "isFixedGasLimit": false
    },
    {
      "hash": "0xacbebe4149194ec82cbe17d0cbcc18920e26c7cc6bd71fa87467cdffc40d37e1",
      "transactionType": "CREATE",
      "contractName": "Kalbonatics",
      "contractAddress": "0xac2b358d3366e30c7266d0cf183a184d9028b831",
      "function": null,
      "arguments": null,
      "transaction": {
        "from": "0x28fe8942e15964ec788c3a2422c324275ab5b334",
        "gas": "0x71ffd",
        "value": "0x0",
        "input": "0x608080604052346026575f80546001600160a01b0319163317905561051f908161002b8239f35b5f80fdfe60806040526004361015610011575f80fd5b5f5f3560e01c80634cae76e51461031b5780638da5cb5b146102f4578063915eb32f146100f3578063a91ee0dc146100995763f1dfaefb14610051575f80fd5b34610096576020366003190112610096576004359067ffffffffffffffff821161009657602061008c61008736600486016103cd565b61045b565b6040519015158152f35b80fd5b5034610096576020366003190112610096576004356001600160a01b038116908190036100ef576100d460018060a01b038354163314610423565b6bffffffffffffffffffffffff60a01b600254161760025580f35b5080fd5b503461026a57604036600319011261026a576004359060243567ffffffffffffffff811161026a576101299036906004016103cd565b6101328161045b565b156102b057600254604051630110ceef60e21b81526020600482018190526008602483015267547265617375727960c01b60448301529091829060649082906001600160a01b03165afa90811561025f575f9161026e575b506001600160a01b0316803b1561026a575f809160246040518094819363129364e760e01b83528960048401525af1801561025f57610228575b5060807fc58c4ab37af31c696b1f32fde0c1801a4f66ac10706e94d51b822c3ae8f9f4299293602060405193849283526060828401528051918291826060860152018484015e8181018301869052336040830152601f01601f19168101030190a180f35b7fc58c4ab37af31c696b1f32fde0c1801a4f66ac10706e94d51b822c3ae8f9f42992505f61025591610397565b60805f92506101c4565b6040513d5f823e3d90fd5b5f80fd5b90506020813d6020116102a8575b8161028960209383610397565b8101031261026a57516001600160a01b038116810361026a575f61018a565b3d915061027c565b606460405162461bcd60e51b815260206004820152602060248201527f496e707574206d7573742062652027484541445327206f7220275441494c53276044820152fd5b3461026a575f36600319011261026a575f546040516001600160a01b039091168152602090f35b3461026a57604036600319011261026a576004356024356001600160a01b0381169081900361026a577fa777690876f80b969fc64a2ea006e665f426114859e785ef63df3222320f50ea9160409161037d60018060a01b035f54163314610423565b805f52600160205281835f205582519182526020820152a1005b90601f8019910116810190811067ffffffffffffffff8211176103b957604052565b634e487b7160e01b5f52604160045260245ffd5b81601f8201121561026a5780359067ffffffffffffffff82116103b95760405192610402601f8401601f191660200185610397565b8284526020838301011161026a57815f926020809301838601378301015290565b1561042a57565b60405162461bcd60e51b81526020600482015260096024820152682737ba1037bbb732b960b91b6044820152606490fd5b6040516104876020828180820195805191829101875e81015f838201520301601f198101835282610397565b519020604051602081019064484541445360d81b8252600581526104ac602582610397565b5190206040516020810190645441494c5360d81b8252600581526104d1602582610397565b5190209082149182156104e357505090565b1491905056fea2646970667358221220d607a134d104d62fa83e060192b9ea8b59527a8e18b31d881eeac97bbbfe568164736f6c634300081c0033",
        "nonce": "0x22",
        "chainId": "0x14a34"
      },
      "additionalContracts": [],
      "isFixedGasLimit": false
    },
    {
      "hash": "0x0cd48f66a96cd0eb0acc55d0e5eebb054aae1ee95611c893dd78c19b494c361c",
      "transactionType": "CREATE",
      "contractName": "Swap",
      "contractAddress": "0x37e75852bc20094ea0c9d674eac0fbf87f3cc84b",
      "function": null,
      "arguments": null,
      "transaction": {
        "from": "0x28fe8942e15964ec788c3a2422c324275ab5b334",
        "gas": "0x1f5c6",
        "value": "0x0",
        "input": "0x6080806040523460135760d2908160188239f35b5f80fdfe60808060405260043610156011575f80fd5b5f3560e01c9081633fb5c1cb1460865781638381f58a14606f575063d09de08a146039575f80fd5b34606b575f366003190112606b575f545f1981146057576001015f55005b634e487b7160e01b5f52601160045260245ffd5b5f80fd5b34606b575f366003190112606b576020905f548152f35b34606b576020366003190112606b576004355f5500fea2646970667358221220928291e609600d778e0a1ac081fe829f9603d8fd238a3e6fcfe3fcf6b885b4c164736f6c634300081c0033",
        "nonce": "0x23",
        "chainId": "0x14a34"
      },
      "additionalContracts": [],
      "isFixedGasLimit": false
    },
    {
      "hash": "0x7b689dcc4ea51fd3284135f57818d9f8d217e9638f4a70b5fdc873c9c9386761",
      "transactionType": "CREATE",
      "contractName": "Treasury",
      "contractAddress": "0x064212c88ccadde1680018d5d454b424c02dac45",
      "function": null,
      "arguments": null,
      "transaction": {
        "from": "0x28fe8942e15964ec788c3a2422c324275ab5b334",
        "gas": "0x480d6",
        "value": "0x0",
        "input": "0x608080604052346026575f80546001600160a01b031916331790556102bc908161002b8239f35b5f80fdfe6080806040526004361015610012575f80fd5b5f3560e01c908163129364e7146100ec575080638da5cb5b146100c55763a91ee0dc1461003d575f80fd5b346100c15760203660031901126100c1576004356001600160a01b038116908190036100c1575f546001600160a01b03163303610090576bffffffffffffffffffffffff60a01b60015416176001555f80f35b60405162461bcd60e51b81526020600482015260096024820152682737ba1037bbb732b960b91b6044820152606490fd5b5f80fd5b346100c1575f3660031901126100c1575f546040516001600160a01b039091168152602090f35b346100c15760203660031901126100c157600154630110ceef60e21b825260206004838101829052600a60248501526925b0b63137aa37b5b2b760b11b6044850152359291829060649082906001600160a01b03165afa908115610202575f9161020d575b506040516323b872dd60e01b81523360048201523060248201526044810183905290602090829060649082905f906001600160a01b03165af18015610202576101c7575b7f67ce3d90ef45e07d828e2b81c2e77a2046c12fce812035188a9756b09f43b9856040838151908152336020820152a1005b6020813d6020116101fa575b816101e060209383610250565b810103126100c1575180151581036100c157506040610195565b3d91506101d3565b6040513d5f823e3d90fd5b90506020813d602011610248575b8161022860209383610250565b810103126100c157516001600160a01b03811681036100c1576020610151565b3d915061021b565b90601f8019910116810190811067ffffffffffffffff82111761027257604052565b634e487b7160e01b5f52604160045260245ffdfea2646970667358221220dbb05df9f532f3e8423e59e51d0a6825d4f23ea4eb7352d6b4f158081ac765a664736f6c634300081c0033",
        "nonce": "0x24",
        "chainId": "0x14a34"
      },
      "additionalContracts": [],
      "isFixedGasLimit": false
    },
    {
      "hash": "0x1b0bc372547f3a453baac78330294a6a0b7f5c9fa6c1cd8ec0c48535b41e3f36",
      "transactionType": "CALL",
      "contractName": "Registry",
      "contractAddress": "0x41304f0bd2774fb84ba315094d8d33974dc19fc9",
      "function": "setContract(address,string)",
      "arguments": [
        "0x41304F0BD2774fB84BA315094D8d33974DC19FC9",
        "Registry"
      ],
      "transaction": {
        "from": "0x28fe8942e15964ec788c3a2422c324275ab5b334",
        "to": "0x41304f0bd2774fb84ba315094d8d33974dc19fc9",
        "gas": "0xfb76",
        "value": "0x0",
        "input": "0x1b1c2c7f00000000000000000000000041304f0bd2774fb84ba315094d8d33974dc19fc9000000000000000000000000000000000000000000000000000000000000004000000000000000000000000000000000000000000000000000000000000000085265676973747279000000000000000000000000000000000000000000000000",
        "nonce": "0x25",
        "chainId": "0x14a34"
      },
      "additionalContracts": [],
      "isFixedGasLimit": false
    },
    {
      "hash": "0xe7c8c9cc93e78c892a8bef25d5b4d7c4fe9ec699afdea6861a7f54e93b4f2e79",
      "transactionType": "CALL",
      "contractName": "Registry",
      "contractAddress": "0x41304f0bd2774fb84ba315094d8d33974dc19fc9",
      "function": "setContract(address,string)",
      "arguments": [
        "0xE0dBd2A4BeeB21e78da01E6a95C1FE373CfF829f",
        "KalboToken"
      ],
      "transaction": {
        "from": "0x28fe8942e15964ec788c3a2422c324275ab5b334",
        "to": "0x41304f0bd2774fb84ba315094d8d33974dc19fc9",
        "gas": "0xfb98",
        "value": "0x0",
        "input": "0x1b1c2c7f000000000000000000000000e0dbd2a4beeb21e78da01e6a95c1fe373cff829f0000000000000000000000000000000000000000000000000000000000000040000000000000000000000000000000000000000000000000000000000000000a4b616c626f546f6b656e00000000000000000000000000000000000000000000",
        "nonce": "0x26",
        "chainId": "0x14a34"
      },
      "additionalContracts": [],
      "isFixedGasLimit": false
    },
    {
      "hash": "0xfbc9903f92432f881345e421d8912a14df55396e252360db8d2e2fec62c12ec3",
      "transactionType": "CALL",
      "contractName": "Registry",
      "contractAddress": "0x41304f0bd2774fb84ba315094d8d33974dc19fc9",
      "function": "setContract(address,string)",
      "arguments": [
        "0xAC2B358D3366e30C7266d0CF183a184d9028B831",
        "Kalbonatics"
      ],
      "transaction": {
        "from": "0x28fe8942e15964ec788c3a2422c324275ab5b334",
        "to": "0x41304f0bd2774fb84ba315094d8d33974dc19fc9",
        "gas": "0x10a76",
        "value": "0x0",
        "input": "0x1b1c2c7f000000000000000000000000ac2b358d3366e30c7266d0cf183a184d9028b8310000000000000000000000000000000000000000000000000000000000000040000000000000000000000000000000000000000000000000000000000000000b4b616c626f6e6174696373000000000000000000000000000000000000000000",
        "nonce": "0x27",
        "chainId": "0x14a34"
      },
      "additionalContracts": [],
      "isFixedGasLimit": false
    },
    {
      "hash": "0xe2e7f616988e4a1ed957e501cd2f7eb163d33dc00bb9ddf40810df721828825c",
      "transactionType": "CALL",
      "contractName": "Registry",
      "contractAddress": "0x41304f0bd2774fb84ba315094d8d33974dc19fc9",
      "function": "setContract(address,string)",
      "arguments": [
        "0x37E75852bc20094ea0c9d674Eac0fbf87f3CC84B",
        "Swap"
      ],
      "transaction": {
        "from": "0x28fe8942e15964ec788c3a2422c324275ab5b334",
        "to": "0x41304f0bd2774fb84ba315094d8d33974dc19fc9",
        "gas": "0xfb34",
        "value": "0x0",
        "input": "0x1b1c2c7f00000000000000000000000037e75852bc20094ea0c9d674eac0fbf87f3cc84b000000000000000000000000000000000000000000000000000000000000004000000000000000000000000000000000000000000000000000000000000000045377617000000000000000000000000000000000000000000000000000000000",
        "nonce": "0x28",
        "chainId": "0x14a34"
      },
      "additionalContracts": [],
      "isFixedGasLimit": false
    },
    {
      "hash": "0xeb5e7de7fbdd217d0623c5f5e4dc18607d3193711b94bbdc3d4efa85e74de74e",
      "transactionType": "CALL",
      "contractName": "Registry",
      "contractAddress": "0x41304f0bd2774fb84ba315094d8d33974dc19fc9",
      "function": "setContract(address,string)",
      "arguments": [
        "0x064212c88cCAdDe1680018d5D454b424C02Dac45",
        "Treasury"
      ],
      "transaction": {
        "from": "0x28fe8942e15964ec788c3a2422c324275ab5b334",
        "to": "0x41304f0bd2774fb84ba315094d8d33974dc19fc9",
        "gas": "0x10a30",
        "value": "0x0",
        "input": "0x1b1c2c7f000000000000000000000000064212c88ccadde1680018d5d454b424c02dac45000000000000000000000000000000000000000000000000000000000000004000000000000000000000000000000000000000000000000000000000000000085472656173757279000000000000000000000000000000000000000000000000",
        "nonce": "0x29",
        "chainId": "0x14a34"
      },
      "additionalContracts": [],
      "isFixedGasLimit": false
    }
  ],
  "receipts": [
    {
      "status": "0x1",
      "cumulativeGasUsed": "0x52bd2d",
      "logs": [],
      "logsBloom": "0x00000000000000000000000000000000000000000000000000000000000000000000000000000000000000000000000000000000000000000000000000000000000000000000000000000000000000000000000000000000000000000000000000000000000000000000000000000000000000000000000000000000000000000000000000000000000000000000000000000000000000000000000000000000000000000000000000000000000000000000000000000000000000000000000000000000000000000000000000000000000000000000000000000000000000000000000000000000000000000000000000000000000000000000000000000000",
      "type": "0x2",
      "transactionHash": "0x80274f17e048dfbfc0ee9f61c79d0caac9d48f1da80e76325c8c36ce25a5db1c",
      "transactionIndex": "0x10",
      "blockHash": "0x8611f57481ffcc486abbc0c1bb57ab92880410c1db962c6e4e87f77e4d2b876c",
      "blockNumber": "0x1847978",
      "gasUsed": "0x2918b",
      "effectiveGasPrice": "0xf4437",
      "from": "0x28fe8942e15964ec788c3a2422c324275ab5b334",
      "to": null,
      "contractAddress": "0x41304f0bd2774fb84ba315094d8d33974dc19fc9",
      "l1BaseFeeScalar": "0x44d",
      "l1BlobBaseFee": "0x1",
      "l1BlobBaseFeeScalar": "0xa118b",
      "l1Fee": "0x3d832ce6",
      "l1GasPrice": "0x7dc26a8",
      "l1GasUsed": "0x1bc4"
    },
    {
      "status": "0x1",
      "cumulativeGasUsed": "0x3f90c7",
      "logs": [
        {
          "address": "0xe0dbd2a4beeb21e78da01e6a95c1fe373cff829f",
          "topics": [
            "0xddf252ad1be2c89b69c2b068fc378daa952ba7f163c4a11628f55a4df523b3ef",
            "0x0000000000000000000000000000000000000000000000000000000000000000",
            "0x00000000000000000000000028fe8942e15964ec788c3a2422c324275ab5b334"
          ],
          "data": "0x000000000000000000000000000000000000000c9f2c9cd04674edea40000000",
          "blockHash": "0xbeb731c23a5fd5f5273027bd47677e366bba6eaa65d5e15624f3409b63893947",
          "blockNumber": "0x184797a",
          "blockTimestamp": "0x681c51d4",
          "transactionHash": "0x190ff299355beeda669034d175c9277ad283875e624ff04b83262c1e93283165",
          "transactionIndex": "0x15",
          "logIndex": "0x4e",
          "removed": false
        }
      ],
      "logsBloom": "0x00000000000000000000000000000000000100200000000000000000000000000000000000000000000000000000000400000000000000000000000000000000000000000000000000400008000000000000000000000000000000000000000000000004020000000000000000000880000000000000000000000010000000000000000000000000000000000000000000000000000000000000000000000000000000000000000000000000000000000000000000000000000000000000000000000002000000000000000000000000000000000000000000000000000020000000000000000000000000000000000000000000000000000000000000000000",
      "type": "0x2",
      "transactionHash": "0x190ff299355beeda669034d175c9277ad283875e624ff04b83262c1e93283165",
      "transactionIndex": "0x15",
      "blockHash": "0xbeb731c23a5fd5f5273027bd47677e366bba6eaa65d5e15624f3409b63893947",
      "blockNumber": "0x184797a",
      "gasUsed": "0x78457",
      "effectiveGasPrice": "0xf4437",
      "from": "0x28fe8942e15964ec788c3a2422c324275ab5b334",
      "to": null,
      "contractAddress": "0xe0dbd2a4beeb21e78da01e6a95c1fe373cff829f",
      "l1BaseFeeScalar": "0x44d",
      "l1BlobBaseFee": "0x1",
      "l1BlobBaseFeeScalar": "0xa118b",
      "l1Fee": "0xcb29e5a4",
      "l1GasPrice": "0x7dc26a8",
      "l1GasUsed": "0x5bb4"
    },
    {
      "status": "0x1",
      "cumulativeGasUsed": "0x3857c1",
      "logs": [],
      "logsBloom": "0x00000000000000000000000000000000000000000000000000000000000000000000000000000000000000000000000000000000000000000000000000000000000000000000000000000000000000000000000000000000000000000000000000000000000000000000000000000000000000000000000000000000000000000000000000000000000000000000000000000000000000000000000000000000000000000000000000000000000000000000000000000000000000000000000000000000000000000000000000000000000000000000000000000000000000000000000000000000000000000000000000000000000000000000000000000000",
      "type": "0x2",
      "transactionHash": "0xacbebe4149194ec82cbe17d0cbcc18920e26c7cc6bd71fa87467cdffc40d37e1",
      "transactionIndex": "0x8",
      "blockHash": "0x6be5ccd52058819695db5a5c93031b2e4173db42b08eca97507c12b2a1e73a75",
      "blockNumber": "0x184797c",
      "gasUsed": "0x57b12",
      "effectiveGasPrice": "0xf4438",
      "from": "0x28fe8942e15964ec788c3a2422c324275ab5b334",
      "to": null,
      "contractAddress": "0xac2b358d3366e30c7266d0cf183a184d9028b831",
      "l1BaseFeeScalar": "0x44d",
      "l1BlobBaseFee": "0x1",
      "l1BlobBaseFeeScalar": "0xa118b",
      "l1Fee": "0x83d11bbe",
      "l1GasPrice": "0x7dc26a8",
      "l1GasUsed": "0x3b80"
    },
    {
      "status": "0x1",
      "cumulativeGasUsed": "0x5f724",
      "logs": [],
      "logsBloom": "0x00000000000000000000000000000000000000000000000000000000000000000000000000000000000000000000000000000000000000000000000000000000000000000000000000000000000000000000000000000000000000000000000000000000000000000000000000000000000000000000000000000000000000000000000000000000000000000000000000000000000000000000000000000000000000000000000000000000000000000000000000000000000000000000000000000000000000000000000000000000000000000000000000000000000000000000000000000000000000000000000000000000000000000000000000000000",
      "type": "0x2",
      "transactionHash": "0x0cd48f66a96cd0eb0acc55d0e5eebb054aae1ee95611c893dd78c19b494c361c",
      "transactionIndex": "0x5",
      "blockHash": "0x4e1d710bf68131b39819caa371b4030a5c4766d039cad757293d469676883486",
      "blockNumber": "0x184797e",
      "gasUsed": "0x181fb",
      "effectiveGasPrice": "0xf4438",
      "from": "0x28fe8942e15964ec788c3a2422c324275ab5b334",
      "to": null,
      "contractAddress": "0x37e75852bc20094ea0c9d674eac0fbf87f3cc84b",
      "l1BaseFeeScalar": "0x44d",
      "l1BlobBaseFee": "0x1",
      "l1BlobBaseFeeScalar": "0xa118b",
      "l1Fee": "0x1d1095c7",
      "l1GasPrice": "0x7ac06b8",
      "l1GasUsed": "0xd70"
    },
    {
      "status": "0x1",
      "cumulativeGasUsed": "0x882cb7",
      "logs": [],
      "logsBloom": "0x00000000000000000000000000000000000000000000000000000000000000000000000000000000000000000000000000000000000000000000000000000000000000000000000000000000000000000000000000000000000000000000000000000000000000000000000000000000000000000000000000000000000000000000000000000000000000000000000000000000000000000000000000000000000000000000000000000000000000000000000000000000000000000000000000000000000000000000000000000000000000000000000000000000000000000000000000000000000000000000000000000000000000000000000000000000",
      "type": "0x2",
      "transactionHash": "0x7b689dcc4ea51fd3284135f57818d9f8d217e9638f4a70b5fdc873c9c9386761",
      "transactionIndex": "0x25",
      "blockHash": "0x9ce15dfd34af039edbc7fc69b7fe1641fe94193b8ac7d663458c1e090bd9b183",
      "blockNumber": "0x184797f",
      "gasUsed": "0x376cc",
      "effectiveGasPrice": "0xf4437",
      "from": "0x28fe8942e15964ec788c3a2422c324275ab5b334",
      "to": null,
      "contractAddress": "0x064212c88ccadde1680018d5d454b424c02dac45",
      "l1BaseFeeScalar": "0x44d",
      "l1BlobBaseFee": "0x1",
      "l1BlobBaseFeeScalar": "0xa118b",
      "l1Fee": "0x4c521f20",
      "l1GasPrice": "0x7ac06b8",
      "l1GasUsed": "0x234b"
    },
    {
      "status": "0x1",
      "cumulativeGasUsed": "0x3e69c7",
      "logs": [
        {
          "address": "0x41304f0bd2774fb84ba315094d8d33974dc19fc9",
          "topics": [
            "0x8d32db8be4214ad2a32e6ae8c7dc8dbc43aff8635779cdc39abaf9d4d82929aa"
          ],
          "data": "0x00000000000000000000000041304f0bd2774fb84ba315094d8d33974dc19fc9000000000000000000000000000000000000000000000000000000000000004000000000000000000000000000000000000000000000000000000000000000085265676973747279000000000000000000000000000000000000000000000000",
          "blockHash": "0xb3b08014f949fdbb90f378f4fb946bfad8efd0700908074a3a9d86466dd061fb",
          "blockNumber": "0x1847980",
          "blockTimestamp": "0x681c51e0",
          "transactionHash": "0x1b0bc372547f3a453baac78330294a6a0b7f5c9fa6c1cd8ec0c48535b41e3f36",
          "transactionIndex": "0x1b",
          "logIndex": "0x77",
          "removed": false
        }
      ],
      "logsBloom": "0x00000000000000000000008000000000000000000000000000000000000000000000000000000000020000000000000000000000000000000000000000000000000000000000000020000000000000000000000000000000020008000000000000000000000000000000000000000000000000000000000000000000000000000000000000000000000000000000000000000000000000000000000000000000000000000000000000000000000000000000000000000000000000000000000000000000000000000000000000000000000000000000000000000000000000000000000400000000000000000000000000000000000000000000000000000000",
      "type": "0x2",
      "transactionHash": "0x1b0bc372547f3a453baac78330294a6a0b7f5c9fa6c1cd8ec0c48535b41e3f36",
      "transactionIndex": "0x1b",
      "blockHash": "0xb3b08014f949fdbb90f378f4fb946bfad8efd0700908074a3a9d86466dd061fb",
      "blockNumber": "0x1847980",
      "gasUsed": "0xb60f",
      "effectiveGasPrice": "0xf4437",
      "from": "0x28fe8942e15964ec788c3a2422c324275ab5b334",
      "to": "0x41304f0bd2774fb84ba315094d8d33974dc19fc9",
      "contractAddress": null,
      "l1BaseFeeScalar": "0x44d",
      "l1BlobBaseFee": "0x1",
      "l1BlobBaseFeeScalar": "0xa118b",
      "l1Fee": "0xd83d463",
      "l1GasPrice": "0x7ac06b8",
      "l1GasUsed": "0x640"
    },
    {
      "status": "0x1",
      "cumulativeGasUsed": "0xe493e",
      "logs": [
        {
          "address": "0x41304f0bd2774fb84ba315094d8d33974dc19fc9",
          "topics": [
            "0x8d32db8be4214ad2a32e6ae8c7dc8dbc43aff8635779cdc39abaf9d4d82929aa"
          ],
          "data": "0x000000000000000000000000e0dbd2a4beeb21e78da01e6a95c1fe373cff829f0000000000000000000000000000000000000000000000000000000000000040000000000000000000000000000000000000000000000000000000000000000a4b616c626f546f6b656e00000000000000000000000000000000000000000000",
          "blockHash": "0x71c47a5175bca0e9a08dadebac1c557bcfe411854f7895eb488ef650d087dbe0",
          "blockNumber": "0x1847982",
          "blockTimestamp": "0x681c51e4",
          "transactionHash": "0xe7c8c9cc93e78c892a8bef25d5b4d7c4fe9ec699afdea6861a7f54e93b4f2e79",
          "transactionIndex": "0x7",
          "logIndex": "0x18",
          "removed": false
        }
      ],
      "logsBloom": "0x00000000000000000000008000000000000000000000000000000000000000000000000000000000020000000000000000000000000000000000000000000000000000000000000020000000000000000000000000000000020008000000000000000000000000000000000000000000000000000000000000000000000000000000000000000000000000000000000000000000000000000000000000000000000000000000000000000000000000000000000000000000000000000000000000000000000000000000000000000000000000000000000000000000000000000000000400000000000000000000000000000000000000000000000000000000",
      "type": "0x2",
      "transactionHash": "0xe7c8c9cc93e78c892a8bef25d5b4d7c4fe9ec699afdea6861a7f54e93b4f2e79",
      "transactionIndex": "0x7",
      "blockHash": "0x71c47a5175bca0e9a08dadebac1c557bcfe411854f7895eb488ef650d087dbe0",
      "blockNumber": "0x1847982",
      "gasUsed": "0xb627",
      "effectiveGasPrice": "0xf4435",
      "from": "0x28fe8942e15964ec788c3a2422c324275ab5b334",
      "to": "0x41304f0bd2774fb84ba315094d8d33974dc19fc9",
      "contractAddress": null,
      "l1BaseFeeScalar": "0x44d",
      "l1BlobBaseFee": "0x1",
      "l1BlobBaseFeeScalar": "0xa118b",
      "l1Fee": "0xe414079",
      "l1GasPrice": "0x7ac06b8",
      "l1GasUsed": "0x697"
    },
    {
      "status": "0x1",
      "cumulativeGasUsed": "0x9884f5",
      "logs": [
        {
          "address": "0x41304f0bd2774fb84ba315094d8d33974dc19fc9",
          "topics": [
            "0x8d32db8be4214ad2a32e6ae8c7dc8dbc43aff8635779cdc39abaf9d4d82929aa"
          ],
          "data": "0x000000000000000000000000ac2b358d3366e30c7266d0cf183a184d9028b8310000000000000000000000000000000000000000000000000000000000000040000000000000000000000000000000000000000000000000000000000000000b4b616c626f6e6174696373000000000000000000000000000000000000000000",
          "blockHash": "0x934c3bc076b3fdd39e02f26b7fe151dd481ee09d6b1a2fa93b8eeb897e9f5135",
          "blockNumber": "0x1847983",
          "blockTimestamp": "0x681c51e6",
          "transactionHash": "0xfbc9903f92432f881345e421d8912a14df55396e252360db8d2e2fec62c12ec3",
          "transactionIndex": "0x2e",
          "logIndex": "0xbc",
          "removed": false
        }
      ],
      "logsBloom": "0x00000000000000000000008000000000000000000000000000000000000000000000000000000000020000000000000000000000000000000000000000000000000000000000000020000000000000000000000000000000020008000000000000000000000000000000000000000000000000000000000000000000000000000000000000000000000000000000000000000000000000000000000000000000000000000000000000000000000000000000000000000000000000000000000000000000000000000000000000000000000000000000000000000000000000000000000400000000000000000000000000000000000000000000000000000000",
      "type": "0x2",
      "transactionHash": "0xfbc9903f92432f881345e421d8912a14df55396e252360db8d2e2fec62c12ec3",
      "transactionIndex": "0x2e",
      "blockHash": "0x934c3bc076b3fdd39e02f26b7fe151dd481ee09d6b1a2fa93b8eeb897e9f5135",
      "blockNumber": "0x1847983",
      "gasUsed": "0xb633",
      "effectiveGasPrice": "0xf4434",
      "from": "0x28fe8942e15964ec788c3a2422c324275ab5b334",
      "to": "0x41304f0bd2774fb84ba315094d8d33974dc19fc9",
      "contractAddress": null,
      "l1BaseFeeScalar": "0x44d",
      "l1BlobBaseFee": "0x1",
      "l1BlobBaseFeeScalar": "0xa118b",
      "l1Fee": "0xe328cd4",
      "l1GasPrice": "0x7859236",
      "l1GasUsed": "0x6b2"
    },
    {
      "status": "0x1",
      "cumulativeGasUsed": "0x63d161",
      "logs": [
        {
          "address": "0x41304f0bd2774fb84ba315094d8d33974dc19fc9",
          "topics": [
            "0x8d32db8be4214ad2a32e6ae8c7dc8dbc43aff8635779cdc39abaf9d4d82929aa"
          ],
          "data": "0x00000000000000000000000037e75852bc20094ea0c9d674eac0fbf87f3cc84b000000000000000000000000000000000000000000000000000000000000004000000000000000000000000000000000000000000000000000000000000000045377617000000000000000000000000000000000000000000000000000000000",
          "blockHash": "0x5481704399705cf6955507e166fa7d8ae23df158e91aefa2921ad481cf9d54d4",
          "blockNumber": "0x1847985",
          "blockTimestamp": "0x681c51ea",
          "transactionHash": "0xe2e7f616988e4a1ed957e501cd2f7eb163d33dc00bb9ddf40810df721828825c",
          "transactionIndex": "0x2e",
          "logIndex": "0x65",
          "removed": false
        }
      ],
      "logsBloom": "0x00000000000000000000008000000000000000000000000000000000000000000000000000000000020000000000000000000000000000000000000000000000000000000000000020000000000000000000000000000000020008000000000000000000000000000000000000000000000000000000000000000000000000000000000000000000000000000000000000000000000000000000000000000000000000000000000000000000000000000000000000000000000000000000000000000000000000000000000000000000000000000000000000000000000000000000000400000000000000000000000000000000000000000000000000000000",
      "type": "0x2",
      "transactionHash": "0xe2e7f616988e4a1ed957e501cd2f7eb163d33dc00bb9ddf40810df721828825c",
      "transactionIndex": "0x2e",
      "blockHash": "0x5481704399705cf6955507e166fa7d8ae23df158e91aefa2921ad481cf9d54d4",
      "blockNumber": "0x1847985",
      "gasUsed": "0xb5df",
      "effectiveGasPrice": "0xf4433",
      "from": "0x28fe8942e15964ec788c3a2422c324275ab5b334",
      "to": "0x41304f0bd2774fb84ba315094d8d33974dc19fc9",
      "contractAddress": null,
      "l1BaseFeeScalar": "0x44d",
      "l1BlobBaseFee": "0x1",
      "l1BlobBaseFeeScalar": "0xa118b",
      "l1Fee": "0xd4f8d38",
      "l1GasPrice": "0x7859236",
      "l1GasUsed": "0x647"
    },
    {
      "status": "0x1",
      "cumulativeGasUsed": "0x2aae78",
      "logs": [
        {
          "address": "0x41304f0bd2774fb84ba315094d8d33974dc19fc9",
          "topics": [
            "0x8d32db8be4214ad2a32e6ae8c7dc8dbc43aff8635779cdc39abaf9d4d82929aa"
          ],
          "data": "0x000000000000000000000000064212c88ccadde1680018d5d454b424c02dac45000000000000000000000000000000000000000000000000000000000000004000000000000000000000000000000000000000000000000000000000000000085472656173757279000000000000000000000000000000000000000000000000",
          "blockHash": "0x29d31f22addfc8502de6ecb0437e5678bf4279d00870f531f76a0c990193616a",
          "blockNumber": "0x1847987",
          "blockTimestamp": "0x681c51ee",
          "transactionHash": "0xeb5e7de7fbdd217d0623c5f5e4dc18607d3193711b94bbdc3d4efa85e74de74e",
          "transactionIndex": "0x14",
          "logIndex": "0x2f",
          "removed": false
        }
      ],
      "logsBloom": "0x00000000000000000000008000000000000000000000000000000000000000000000000000000000020000000000000000000000000000000000000000000000000000000000000020000000000000000000000000000000020008000000000000000000000000000000000000000000000000000000000000000000000000000000000000000000000000000000000000000000000000000000000000000000000000000000000000000000000000000000000000000000000000000000000000000000000000000000000000000000000000000000000000000000000000000000000400000000000000000000000000000000000000000000000000000000",
      "type": "0x2",
      "transactionHash": "0xeb5e7de7fbdd217d0623c5f5e4dc18607d3193711b94bbdc3d4efa85e74de74e",
      "transactionIndex": "0x14",
      "blockHash": "0x29d31f22addfc8502de6ecb0437e5678bf4279d00870f531f76a0c990193616a",
      "blockNumber": "0x1847987",
      "gasUsed": "0xb603",
      "effectiveGasPrice": "0xf4432",
      "from": "0x28fe8942e15964ec788c3a2422c324275ab5b334",
      "to": "0x41304f0bd2774fb84ba315094d8d33974dc19fc9",
      "contractAddress": null,
      "l1BaseFeeScalar": "0x44d",
      "l1BlobBaseFee": "0x1",
      "l1BlobBaseFeeScalar": "0xa118b",
      "l1Fee": "0xddd6cfa",
      "l1GasPrice": "0x7859236",
      "l1GasUsed": "0x68a"
    }
  ],
  "libraries": [],
  "pending": [],
  "returns": {},
  "timestamp": 1746686447,
  "chain": 84532,
  "commit": "2cdf220"
}