{
  "transactions": [
    {
      "hash": "0xddeff97ae6a2000f3ab4fb026ea4f8a7a15e1986bb96fb20c5caeb684c9ae3c5",
      "transactionType": "CREATE",
      "contractName": "Registry",
      "contractAddress": "0x4a881a666157427641f4f3455b7bd287496ecf2f",
      "function": null,
      "arguments": null,
      "transaction": {
        "from": "0x28fe8942e15964ec788c3a2422c324275ab5b334",
        "gas": "0x356ce",
        "value": "0x0",
        "input": "0x60808060405234601557610214908161001a8239f35b5f80fdfe60806040526004361015610011575f80fd5b5f3560e01c806304433bbc1461010157631b1c2c7f1461002f575f80fd5b346100fd5760403660031901126100fd576004356001600160a01b038116908190036100fd576024359067ffffffffffffffff82116100fd5760606100997f8d32db8be4214ad2a32e6ae8c7dc8dbc43aff8635779cdc39abaf9d4d82929aa933690600401610162565b91604051835190602081818701938085835e81015f815203019020826bffffffffffffffffffffffff60a01b8254161790556040519384928352604060208401525180918160408501528484015e5f828201840152601f01601f19168101030190a1005b5f80fd5b346100fd5760203660031901126100fd5760043567ffffffffffffffff81116100fd576101346020913690600401610162565b8160405191805191829101835e5f90820190815281900382019020546040516001600160a01b039091168152f35b81601f820112156100fd5780359067ffffffffffffffff82116101ca5760405192601f8301601f19908116603f0116840167ffffffffffffffff8111858210176101ca57604052828452602083830101116100fd57815f926020809301838601378301015290565b634e487b7160e01b5f52604160045260245ffdfea264697066735822122042ac34a87c3e88880c35d4e22a61849c65e432e089b29558679a834f5f26173c64736f6c634300081c0033",
        "nonce": "0xc",
        "chainId": "0x14a34"
      },
      "additionalContracts": [],
      "isFixedGasLimit": false
    },
    {
      "hash": "0x5b3a0cf25b276e90715553ea42a7c3fe0a6516703324f971b2bc26ea18aa2b66",
      "transactionType": "CREATE",
      "contractName": "KalboToken",
      "contractAddress": "0x70f45874b46fbc4a481204d67e7e8556f753f583",
      "function": null,
      "arguments": null,
      "transaction": {
        "from": "0x28fe8942e15964ec788c3a2422c324275ab5b334",
        "gas": "0x9c5a4",
        "value": "0x0",
        "input": "0x6080604052346103b857604080519081016001600160401b038111828210176102cb576040908152600b82526a25b0b63137902a37b5b2b760a91b602083015280519081016001600160401b038111828210176102cb5760405260058152644b414c424f60d81b602082015281516001600160401b0381116102cb57600354600181811c911680156103ae575b60208210146102ad57601f811161034b575b50602092601f82116001146102ea57928192935f926102df575b50508160011b915f199060031b1c1916176003555b80516001600160401b0381116102cb57600454600181811c911680156102c1575b60208210146102ad57601f811161024a575b50602091601f82116001146101ea579181925f926101df575b50508160011b915f199060031b1c1916176004555b33156101cc576002546c0c9f2c9cd04674edea4000000081018091116101b857600255335f525f60205260405f206c0c9f2c9cd04674edea4000000081540190556040516c0c9f2c9cd04674edea4000000081525f7fddf252ad1be2c89b69c2b068fc378daa952ba7f163c4a11628f55a4df523b3ef60203393a360405161060790816103bd8239f35b634e487b7160e01b5f52601160045260245ffd5b63ec442f0560e01b5f525f60045260245ffd5b015190505f80610119565b601f1982169260045f52805f20915f5b8581106102325750836001951061021a575b505050811b0160045561012e565b01515f1960f88460031b161c191690555f808061020c565b919260206001819286850151815501940192016101fa565b60045f527f8a35acfbc15ff81a39ae7d344fd709f28e8600b4aa8c65c6b64bfe7fe36bd19b601f830160051c810191602084106102a3575b601f0160051c01905b8181106102985750610100565b5f815560010161028b565b9091508190610282565b634e487b7160e01b5f52602260045260245ffd5b90607f16906100ee565b634e487b7160e01b5f52604160045260245ffd5b015190505f806100b8565b601f1982169360035f52805f20915f5b868110610333575083600195961061031b575b505050811b016003556100cd565b01515f1960f88460031b161c191690555f808061030d565b919260206001819286850151815501940192016102fa565b60035f527fc2575a0e9e593c00f959f8c92f12db2869c3395a3b0502d05e2516446f71f85b601f830160051c810191602084106103a4575b601f0160051c01905b818110610399575061009e565b5f815560010161038c565b9091508190610383565b90607f169061008c565b5f80fdfe6080806040526004361015610012575f80fd5b5f3560e01c90816306fdde03146103ef57508063095ea7b31461036d57806318160ddd1461035057806323b872dd14610271578063313ce5671461025657806370a082311461021f57806395d89b4114610104578063a9059cbb146100d35763dd62ed3e1461007f575f80fd5b346100cf5760403660031901126100cf576100986104e8565b6100a06104fe565b6001600160a01b039182165f908152600160209081526040808320949093168252928352819020549051908152f35b5f80fd5b346100cf5760403660031901126100cf576100f96100ef6104e8565b6024359033610514565b602060405160018152f35b346100cf575f3660031901126100cf576040515f6004548060011c90600181168015610215575b602083108114610201578285529081156101e55750600114610190575b50819003601f01601f191681019067ffffffffffffffff82118183101761017c57610178829182604052826104be565b0390f35b634e487b7160e01b5f52604160045260245ffd5b905060045f527f8a35acfbc15ff81a39ae7d344fd709f28e8600b4aa8c65c6b64bfe7fe36bd19b5f905b8282106101cf57506020915082010182610148565b60018160209254838588010152019101906101ba565b90506020925060ff191682840152151560051b82010182610148565b634e487b7160e01b5f52602260045260245ffd5b91607f169161012b565b346100cf5760203660031901126100cf576001600160a01b036102406104e8565b165f525f602052602060405f2054604051908152f35b346100cf575f3660031901126100cf57602060405160128152f35b346100cf5760603660031901126100cf5761028a6104e8565b6102926104fe565b6001600160a01b0382165f818152600160209081526040808320338452909152902054909260443592915f1981106102d0575b506100f99350610514565b83811061033557841561032257331561030f576100f9945f52600160205260405f2060018060a01b0333165f526020528360405f2091039055846102c5565b634a1406b160e11b5f525f60045260245ffd5b63e602df0560e01b5f525f60045260245ffd5b8390637dc7a0d960e11b5f523360045260245260445260645ffd5b346100cf575f3660031901126100cf576020600254604051908152f35b346100cf5760403660031901126100cf576103866104e8565b602435903315610322576001600160a01b031690811561030f57335f52600160205260405f20825f526020528060405f20556040519081527f8c5be1e5ebec7d5bd14f71427d1e84f3dd0314c0f7b2291e5b200ac8c7c3b92560203392a3602060405160018152f35b346100cf575f3660031901126100cf575f6003548060011c906001811680156104b4575b602083108114610201578285529081156101e5575060011461045f5750819003601f01601f191681019067ffffffffffffffff82118183101761017c57610178829182604052826104be565b905060035f527fc2575a0e9e593c00f959f8c92f12db2869c3395a3b0502d05e2516446f71f85b5f905b82821061049e57506020915082010182610148565b6001816020925483858801015201910190610489565b91607f1691610413565b602060409281835280519182918282860152018484015e5f828201840152601f01601f1916010190565b600435906001600160a01b03821682036100cf57565b602435906001600160a01b03821682036100cf57565b6001600160a01b03169081156105be576001600160a01b03169182156105ab57815f525f60205260405f205481811061059257817fddf252ad1be2c89b69c2b068fc378daa952ba7f163c4a11628f55a4df523b3ef92602092855f525f84520360405f2055845f525f825260405f20818154019055604051908152a3565b8263391434e360e21b5f5260045260245260445260645ffd5b63ec442f0560e01b5f525f60045260245ffd5b634b637e8f60e11b5f525f60045260245ffdfea264697066735822122017a19901e1b913d80c42c728db9acb9118c7f5ea28f4b8aea4022f7148c0019a64736f6c634300081c0033",
        "nonce": "0xd",
        "chainId": "0x14a34"
      },
      "additionalContracts": [],
      "isFixedGasLimit": false
    },
    {
      "hash": "0xb67af53519b3957a07d0ccd1a6b9ff76a0af160942823f8a2d5f15c8c5fc9007",
      "transactionType": "CREATE",
      "contractName": "Kalbonatics",
      "contractAddress": "0x47f1a7278bd070f800af14145b2df0b27be50e71",
      "function": null,
      "arguments": null,
      "transaction": {
        "from": "0x28fe8942e15964ec788c3a2422c324275ab5b334",
        "gas": "0x69283",
        "value": "0x0",
        "input": "0x608080604052346026575f80546001600160a01b0319163317905561049f908161002b8239f35b5f80fdfe60806040526004361015610011575f80fd5b5f3560e01c80634cae76e51461029b5780638da5cb5b14610274578063915eb32f146100ef578063a91ee0dc146100995763f1dfaefb14610050575f80fd5b346100955760203660031901126100955760043567ffffffffffffffff81116100955761008b610086602092369060040161034d565b6103db565b6040519015158152f35b5f80fd5b34610095576020366003190112610095576004356001600160a01b03811690819003610095576100d360018060a01b035f541633146103a3565b6bffffffffffffffffffffffff60a01b60025416176002555f80f35b346100955760403660031901126100955760243567ffffffffffffffff81116100955761012090369060040161034d565b610129816103db565b1561023057600254604051630110ceef60e21b81526020600482018190526008602483015267547265617375727960c01b60448301529091829060649082906001600160a01b03165afa8015610225576101e1575b7fc58c4ab37af31c696b1f32fde0c1801a4f66ac10706e94d51b822c3ae8f9f429602060808460405192839160043583526060828401528051918291826060860152018484015e5f828201840152336040830152601f01601f19168101030190a1005b6020813d60201161021d575b816101fa60209383610317565b810103126100955751906001600160a01b0382168203610095579050602061017e565b3d91506101ed565b6040513d5f823e3d90fd5b606460405162461bcd60e51b815260206004820152602060248201527f496e707574206d7573742062652027484541445327206f7220275441494c53276044820152fd5b34610095575f366003190112610095575f546040516001600160a01b039091168152602090f35b34610095576040366003190112610095576004356024356001600160a01b03811690819003610095577fa777690876f80b969fc64a2ea006e665f426114859e785ef63df3222320f50ea916040916102fd60018060a01b035f541633146103a3565b805f52600160205281835f205582519182526020820152a1005b90601f8019910116810190811067ffffffffffffffff82111761033957604052565b634e487b7160e01b5f52604160045260245ffd5b81601f820112156100955780359067ffffffffffffffff82116103395760405192610382601f8401601f191660200185610317565b8284526020838301011161009557815f926020809301838601378301015290565b156103aa57565b60405162461bcd60e51b81526020600482015260096024820152682737ba1037bbb732b960b91b6044820152606490fd5b6040516104076020828180820195805191829101875e81015f838201520301601f198101835282610317565b519020604051602081019064484541445360d81b82526005815261042c602582610317565b5190206040516020810190645441494c5360d81b825260058152610451602582610317565b51902090821491821561046357505090565b1491905056fea264697066735822122000b50d519900e4b2390b3791269c764fe4ebe9e24c54aa8a62f668a955733a5f64736f6c634300081c0033",
        "nonce": "0xe",
        "chainId": "0x14a34"
      },
      "additionalContracts": [],
      "isFixedGasLimit": false
    },
    {
      "hash": "0xb4bd3cf394b36408ca099ea8a9e32dbf52b958f86202cc62718ad42f6f9d2d6b",
      "transactionType": "CREATE",
      "contractName": "Swap",
      "contractAddress": "0x7cf798af67d469b4cc92afbc1499c57b6477b2d4",
      "function": null,
      "arguments": null,
      "transaction": {
        "from": "0x28fe8942e15964ec788c3a2422c324275ab5b334",
        "gas": "0x1f5c6",
        "value": "0x0",
        "input": "0x6080806040523460135760d2908160188239f35b5f80fdfe60808060405260043610156011575f80fd5b5f3560e01c9081633fb5c1cb1460865781638381f58a14606f575063d09de08a146039575f80fd5b34606b575f366003190112606b575f545f1981146057576001015f55005b634e487b7160e01b5f52601160045260245ffd5b5f80fd5b34606b575f366003190112606b576020905f548152f35b34606b576020366003190112606b576004355f5500fea2646970667358221220928291e609600d778e0a1ac081fe829f9603d8fd238a3e6fcfe3fcf6b885b4c164736f6c634300081c0033",
        "nonce": "0xf",
        "chainId": "0x14a34"
      },
      "additionalContracts": [],
      "isFixedGasLimit": false
    },
    {
      "hash": "0x470d7e12271527cd1a51c73b8b89797cdcae1083c994bd9e540f37b0314a939f",
      "transactionType": "CREATE",
      "contractName": "Treasury",
      "contractAddress": "0x1d43ab9c23347a2cca11a33432396e85117b4cf7",
      "function": null,
      "arguments": null,
      "transaction": {
        "from": "0x28fe8942e15964ec788c3a2422c324275ab5b334",
        "gas": "0x3f637",
        "value": "0x0",
        "input": "0x608080604052346026575f80546001600160a01b0319163317905561023d908161002b8239f35b5f80fdfe6080806040526004361015610012575f80fd5b5f3560e01c9081638da5cb5b146101ad57508063a91ee0dc146101575763b06a71d21461003d575f80fd5b3461013f57604036600319011261013f5760243567ffffffffffffffff811161013f573660238201121561013f5780600401359067ffffffffffffffff82116101435760405190601f8301601f19908116603f0116820167ffffffffffffffff811183821017610143576040528282526020820191366024858401011161013f575f6020857fc58c4ab37af31c696b1f32fde0c1801a4f66ac10706e94d51b822c3ae8f9f4299660246080960187378301015261010460018060a01b035f541633146101cf565b6040519283916004358352606060208401525180918160608501528484015e5f828201840152336040830152601f01601f19168101030190a1005b5f80fd5b634e487b7160e01b5f52604160045260245ffd5b3461013f57602036600319011261013f576004356001600160a01b0381169081900361013f5761019160018060a01b035f541633146101cf565b6bffffffffffffffffffffffff60a01b60015416176001555f80f35b3461013f575f36600319011261013f575f546001600160a01b03168152602090f35b156101d657565b60405162461bcd60e51b81526020600482015260096024820152682737ba1037bbb732b960b91b6044820152606490fdfea264697066735822122097fcce1c829d58a946ec1498187d65c26c8d71873486b7df617a4c3451e6594864736f6c634300081c0033",
        "nonce": "0x10",
        "chainId": "0x14a34"
      },
      "additionalContracts": [],
      "isFixedGasLimit": false
    },
    {
      "hash": "0x89cd01ce54b8a39c82a38d8c35d007587d4ab4692d06520ef736dc0456a5b681",
      "transactionType": "CALL",
      "contractName": "Registry",
      "contractAddress": "0x4a881a666157427641f4f3455b7bd287496ecf2f",
      "function": "setContract(address,string)",
      "arguments": [
        "0x4a881a666157427641F4F3455B7BD287496eCf2f",
        "Registry"
      ],
      "transaction": {
        "from": "0x28fe8942e15964ec788c3a2422c324275ab5b334",
        "to": "0x4a881a666157427641f4f3455b7bd287496ecf2f",
        "gas": "0xfb76",
        "value": "0x0",
        "input": "0x1b1c2c7f0000000000000000000000004a881a666157427641f4f3455b7bd287496ecf2f000000000000000000000000000000000000000000000000000000000000004000000000000000000000000000000000000000000000000000000000000000085265676973747279000000000000000000000000000000000000000000000000",
        "nonce": "0x11",
        "chainId": "0x14a34"
      },
      "additionalContracts": [],
      "isFixedGasLimit": false
    },
    {
      "hash": "0xbc3b051a3aba6f4213ee5b0929e5c056584fa5c65ed6d24d8e93e4f1e0b20bd2",
      "transactionType": "CALL",
      "contractName": "Registry",
      "contractAddress": "0x4a881a666157427641f4f3455b7bd287496ecf2f",
      "function": "setContract(address,string)",
      "arguments": [
        "0x70F45874B46FbC4a481204d67e7E8556F753f583",
        "KalboToken"
      ],
      "transaction": {
        "from": "0x28fe8942e15964ec788c3a2422c324275ab5b334",
        "to": "0x4a881a666157427641f4f3455b7bd287496ecf2f",
        "gas": "0xfb98",
        "value": "0x0",
        "input": "0x1b1c2c7f00000000000000000000000070f45874b46fbc4a481204d67e7e8556f753f5830000000000000000000000000000000000000000000000000000000000000040000000000000000000000000000000000000000000000000000000000000000a4b616c626f546f6b656e00000000000000000000000000000000000000000000",
        "nonce": "0x12",
        "chainId": "0x14a34"
      },
      "additionalContracts": [],
      "isFixedGasLimit": false
    },
    {
      "hash": "0x14604f9bafdb7c56432192d0b7b0748c36cecfbcd80c03f9bd299f1c69484340",
      "transactionType": "CALL",
      "contractName": "Registry",
      "contractAddress": "0x4a881a666157427641f4f3455b7bd287496ecf2f",
      "function": "setContract(address,string)",
      "arguments": [
        "0x47f1A7278Bd070F800aF14145B2df0b27bE50E71",
        "Kalbonatics"
      ],
      "transaction": {
        "from": "0x28fe8942e15964ec788c3a2422c324275ab5b334",
        "to": "0x4a881a666157427641f4f3455b7bd287496ecf2f",
        "gas": "0xfb98",
        "value": "0x0",
        "input": "0x1b1c2c7f00000000000000000000000047f1a7278bd070f800af14145b2df0b27be50e710000000000000000000000000000000000000000000000000000000000000040000000000000000000000000000000000000000000000000000000000000000b4b616c626f6e6174696373000000000000000000000000000000000000000000",
        "nonce": "0x13",
        "chainId": "0x14a34"
      },
      "additionalContracts": [],
      "isFixedGasLimit": false
    },
    {
      "hash": "0xe92f3907067daa64b9825a63cdcf5f9970861cfdf28257a9c73bbde674535184",
      "transactionType": "CALL",
      "contractName": "Registry",
      "contractAddress": "0x4a881a666157427641f4f3455b7bd287496ecf2f",
      "function": "setContract(address,string)",
      "arguments": [
        "0x7cf798AF67D469b4CC92afBC1499c57B6477b2d4",
        "Swap"
      ],
      "transaction": {
        "from": "0x28fe8942e15964ec788c3a2422c324275ab5b334",
        "to": "0x4a881a666157427641f4f3455b7bd287496ecf2f",
        "gas": "0xfb34",
        "value": "0x0",
        "input": "0x1b1c2c7f0000000000000000000000007cf798af67d469b4cc92afbc1499c57b6477b2d4000000000000000000000000000000000000000000000000000000000000004000000000000000000000000000000000000000000000000000000000000000045377617000000000000000000000000000000000000000000000000000000000",
        "nonce": "0x14",
        "chainId": "0x14a34"
      },
      "additionalContracts": [],
      "isFixedGasLimit": false
    },
    {
      "hash": "0x9df182dbc9f0c6344afd585ed49329177b0e9ea48b27de30995982cf12c33816",
      "transactionType": "CALL",
      "contractName": "Registry",
      "contractAddress": "0x4a881a666157427641f4f3455b7bd287496ecf2f",
      "function": "setContract(address,string)",
      "arguments": [
        "0x1D43AB9C23347A2ccA11a33432396e85117b4cF7",
        "Treasury"
      ],
      "transaction": {
        "from": "0x28fe8942e15964ec788c3a2422c324275ab5b334",
        "to": "0x4a881a666157427641f4f3455b7bd287496ecf2f",
        "gas": "0xfb76",
        "value": "0x0",
        "input": "0x1b1c2c7f0000000000000000000000001d43ab9c23347a2cca11a33432396e85117b4cf7000000000000000000000000000000000000000000000000000000000000004000000000000000000000000000000000000000000000000000000000000000085472656173757279000000000000000000000000000000000000000000000000",
        "nonce": "0x15",
        "chainId": "0x14a34"
      },
      "additionalContracts": [],
      "isFixedGasLimit": false
    }
  ],
  "receipts": [
    {
      "status": "0x1",
      "cumulativeGasUsed": "0x2ac207",
      "logs": [],
      "logsBloom": "0x00000000000000000000000000000000000000000000000000000000000000000000000000000000000000000000000000000000000000000000000000000000000000000000000000000000000000000000000000000000000000000000000000000000000000000000000000000000000000000000000000000000000000000000000000000000000000000000000000000000000000000000000000000000000000000000000000000000000000000000000000000000000000000000000000000000000000000000000000000000000000000000000000000000000000000000000000000000000000000000000000000000000000000000000000000000",
      "type": "0x2",
      "transactionHash": "0xddeff97ae6a2000f3ab4fb026ea4f8a7a15e1986bb96fb20c5caeb684c9ae3c5",
      "transactionIndex": "0x15",
      "blockHash": "0x1b76df202fc5865d02370e8e1f7afe26eccdcea1e00558abe79bc365ee8f2160",
      "blockNumber": "0x1847735",
      "gasUsed": "0x2918b",
      "effectiveGasPrice": "0xf4414",
      "from": "0x28fe8942e15964ec788c3a2422c324275ab5b334",
      "to": null,
      "contractAddress": "0x4a881a666157427641f4f3455b7bd287496ecf2f",
      "l1BaseFeeScalar": "0x44d",
      "l1BlobBaseFee": "0x1",
      "l1BlobBaseFeeScalar": "0xa118b",
      "l1Fee": "0x19e0e206",
      "l1GasPrice": "0x34e847b",
      "l1GasUsed": "0x1bc4"
    },
    {
      "status": "0x1",
      "cumulativeGasUsed": "0x5d0105",
      "logs": [
        {
          "address": "0x70f45874b46fbc4a481204d67e7e8556f753f583",
          "topics": [
            "0xddf252ad1be2c89b69c2b068fc378daa952ba7f163c4a11628f55a4df523b3ef",
            "0x0000000000000000000000000000000000000000000000000000000000000000",
            "0x00000000000000000000000028fe8942e15964ec788c3a2422c324275ab5b334"
          ],
          "data": "0x000000000000000000000000000000000000000c9f2c9cd04674edea40000000",
          "blockHash": "0x3bc9bca23c21bbba462b30fe1b2cf5e944c38b90867b533ab65c4287697be8bf",
          "blockNumber": "0x1847737",
          "blockTimestamp": "0x681c4d4e",
          "transactionHash": "0x5b3a0cf25b276e90715553ea42a7c3fe0a6516703324f971b2bc26ea18aa2b66",
          "transactionIndex": "0x14",
          "logIndex": "0x57",
          "removed": false
        }
      ],
      "logsBloom": "0x00000000000002000000000000000000000000200000000000000000000000000000000000000000000000000000000400000000000000000000000000000000000000100000000000000008000000000000000000000000000000000000000000000000020000000000000000000880000000000000000000000010008000000000000000000000000000000000000000000000000000000000000000000000000000000000000000000000000000000000000000000000000000000000000000000002000000000000000000000000000000000000000000000000000020000000000000000000000000000000000000000000000000000000000000000000",
      "type": "0x2",
      "transactionHash": "0x5b3a0cf25b276e90715553ea42a7c3fe0a6516703324f971b2bc26ea18aa2b66",
      "transactionIndex": "0x14",
      "blockHash": "0x3bc9bca23c21bbba462b30fe1b2cf5e944c38b90867b533ab65c4287697be8bf",
      "blockNumber": "0x1847737",
      "gasUsed": "0x78457",
      "effectiveGasPrice": "0xf4414",
      "from": "0x28fe8942e15964ec788c3a2422c324275ab5b334",
      "to": null,
      "contractAddress": "0x70f45874b46fbc4a481204d67e7e8556f753f583",
      "l1BaseFeeScalar": "0x44d",
      "l1BlobBaseFee": "0x1",
      "l1BlobBaseFeeScalar": "0xa118b",
      "l1Fee": "0x564cf08c",
      "l1GasPrice": "0x356ba5c",
      "l1GasUsed": "0x5bb4"
    },
    {
      "status": "0x1",
      "cumulativeGasUsed": "0x1f7c65",
      "logs": [],
      "logsBloom": "0x00000000000000000000000000000000000000000000000000000000000000000000000000000000000000000000000000000000000000000000000000000000000000000000000000000000000000000000000000000000000000000000000000000000000000000000000000000000000000000000000000000000000000000000000000000000000000000000000000000000000000000000000000000000000000000000000000000000000000000000000000000000000000000000000000000000000000000000000000000000000000000000000000000000000000000000000000000000000000000000000000000000000000000000000000000000",
      "type": "0x2",
      "transactionHash": "0xb67af53519b3957a07d0ccd1a6b9ff76a0af160942823f8a2d5f15c8c5fc9007",
      "transactionIndex": "0xa",
      "blockHash": "0x1e2a8a97c585581951ecd1fca4ea0e815d8996d830cc5b22eddec1f62be2f4e9",
      "blockNumber": "0x1847739",
      "gasUsed": "0x50e3e",
      "effectiveGasPrice": "0xf4415",
      "from": "0x28fe8942e15964ec788c3a2422c324275ab5b334",
      "to": null,
      "contractAddress": "0x47f1a7278bd070f800af14145b2df0b27be50e71",
      "l1BaseFeeScalar": "0x44d",
      "l1BlobBaseFee": "0x1",
      "l1BlobBaseFeeScalar": "0xa118b",
      "l1Fee": "0x3262852c",
      "l1GasPrice": "0x356ba5c",
      "l1GasUsed": "0x358a"
    },
    {
      "status": "0x1",
      "cumulativeGasUsed": "0x38971",
      "logs": [],
      "logsBloom": "0x00000000000000000000000000000000000000000000000000000000000000000000000000000000000000000000000000000000000000000000000000000000000000000000000000000000000000000000000000000000000000000000000000000000000000000000000000000000000000000000000000000000000000000000000000000000000000000000000000000000000000000000000000000000000000000000000000000000000000000000000000000000000000000000000000000000000000000000000000000000000000000000000000000000000000000000000000000000000000000000000000000000000000000000000000000000",
      "type": "0x2",
      "transactionHash": "0xb4bd3cf394b36408ca099ea8a9e32dbf52b958f86202cc62718ad42f6f9d2d6b",
      "transactionIndex": "0x2",
      "blockHash": "0xc633ff92ee0bf6fb8644372a717dd3c8358b7be53a95d674963dc9dd701d94da",
      "blockNumber": "0x184773b",
      "gasUsed": "0x181fb",
      "effectiveGasPrice": "0xf4416",
      "from": "0x28fe8942e15964ec788c3a2422c324275ab5b334",
      "to": null,
      "contractAddress": "0x7cf798af67d469b4cc92afbc1499c57b6477b2d4",
      "l1BaseFeeScalar": "0x44d",
      "l1BlobBaseFee": "0x1",
      "l1BlobBaseFeeScalar": "0xa118b",
      "l1Fee": "0xca6150f",
      "l1GasPrice": "0x356ba5c",
      "l1GasUsed": "0xd70"
    },
    {
      "status": "0x1",
      "cumulativeGasUsed": "0x12a44da",
      "logs": [],
      "logsBloom": "0x00000000000000000000000000000000000000000000000000000000000000000000000000000000000000000000000000000000000000000000000000000000000000000000000000000000000000000000000000000000000000000000000000000000000000000000000000000000000000000000000000000000000000000000000000000000000000000000000000000000000000000000000000000000000000000000000000000000000000000000000000000000000000000000000000000000000000000000000000000000000000000000000000000000000000000000000000000000000000000000000000000000000000000000000000000000",
      "type": "0x2",
      "transactionHash": "0x470d7e12271527cd1a51c73b8b89797cdcae1083c994bd9e540f37b0314a939f",
      "transactionIndex": "0x1d",
      "blockHash": "0x66586bb8da892f61247b9dc4d9539451bcb01bd3b5621230b0a24f9ec58c0cfc",
      "blockNumber": "0x184773c",
      "gasUsed": "0x30c2b",
      "effectiveGasPrice": "0xf4415",
      "from": "0x28fe8942e15964ec788c3a2422c324275ab5b334",
      "to": null,
      "contractAddress": "0x1d43ab9c23347a2cca11a33432396e85117b4cf7",
      "l1BaseFeeScalar": "0x44d",
      "l1BlobBaseFee": "0x1",
      "l1BlobBaseFeeScalar": "0xa118b",
      "l1Fee": "0x1ca37cf8",
      "l1GasPrice": "0x356ba5c",
      "l1GasUsed": "0x1e6e"
    },
    {
      "status": "0x1",
      "cumulativeGasUsed": "0x33b9ab",
      "logs": [
        {
          "address": "0x4a881a666157427641f4f3455b7bd287496ecf2f",
          "topics": [
            "0x8d32db8be4214ad2a32e6ae8c7dc8dbc43aff8635779cdc39abaf9d4d82929aa"
          ],
          "data": "0x0000000000000000000000004a881a666157427641f4f3455b7bd287496ecf2f000000000000000000000000000000000000000000000000000000000000004000000000000000000000000000000000000000000000000000000000000000085265676973747279000000000000000000000000000000000000000000000000",
          "blockHash": "0x0f4c9618920e9c6ee13d5045f954f0a2d240d8f93136d408467de90542299e30",
          "blockNumber": "0x184773e",
          "blockTimestamp": "0x681c4d5c",
          "transactionHash": "0x89cd01ce54b8a39c82a38d8c35d007587d4ab4692d06520ef736dc0456a5b681",
          "transactionIndex": "0x11",
          "logIndex": "0x4e",
          "removed": false
        }
      ],
      "logsBloom": "0x00000000000000000000008000000000000000000000000000000000000000000000000000000000000000000000000000000000000000000000000004000000000000000000000000000000000000000000000000000000020008000000000000000000000000000000000000000000000000000000000000000000000000000000000000000000000000000000000000000000000000000000000002000000000000000000000000000000000000000000000000001000000000000000000000000000000000000000000000000000000000000000000000000000000000000000000000000000000000000000000000000000000000000000000000000000",
      "type": "0x2",
      "transactionHash": "0x89cd01ce54b8a39c82a38d8c35d007587d4ab4692d06520ef736dc0456a5b681",
      "transactionIndex": "0x11",
      "blockHash": "0x0f4c9618920e9c6ee13d5045f954f0a2d240d8f93136d408467de90542299e30",
      "blockNumber": "0x184773e",
      "gasUsed": "0xb60f",
      "effectiveGasPrice": "0xf4415",
      "from": "0x28fe8942e15964ec788c3a2422c324275ab5b334",
      "to": "0x4a881a666157427641f4f3455b7bd287496ecf2f",
      "contractAddress": null,
      "l1BaseFeeScalar": "0x44d",
      "l1BlobBaseFee": "0x1",
      "l1BlobBaseFeeScalar": "0xa118b",
      "l1Fee": "0x6295317",
      "l1GasPrice": "0x37f6480",
      "l1GasUsed": "0x640"
    },
    {
      "status": "0x1",
      "cumulativeGasUsed": "0x673aa",
      "logs": [
        {
          "address": "0x4a881a666157427641f4f3455b7bd287496ecf2f",
          "topics": [
            "0x8d32db8be4214ad2a32e6ae8c7dc8dbc43aff8635779cdc39abaf9d4d82929aa"
          ],
          "data": "0x00000000000000000000000070f45874b46fbc4a481204d67e7e8556f753f5830000000000000000000000000000000000000000000000000000000000000040000000000000000000000000000000000000000000000000000000000000000a4b616c626f546f6b656e00000000000000000000000000000000000000000000",
          "blockHash": "0x2098f0bd2e34d630047ee7f81d8d57a87b2085685b8e79c79cacaaf39fbeba83",
          "blockNumber": "0x1847740",
          "blockTimestamp": "0x681c4d60",
          "transactionHash": "0xbc3b051a3aba6f4213ee5b0929e5c056584fa5c65ed6d24d8e93e4f1e0b20bd2",
          "transactionIndex": "0x6",
          "logIndex": "0xc",
          "removed": false
        }
      ],
      "logsBloom": "0x00000000000000000000008000000000000000000000000000000000000000000000000000000000000000000000000000000000000000000000000004000000000000000000000000000000000000000000000000000000020008000000000000000000000000000000000000000000000000000000000000000000000000000000000000000000000000000000000000000000000000000000000002000000000000000000000000000000000000000000000000001000000000000000000000000000000000000000000000000000000000000000000000000000000000000000000000000000000000000000000000000000000000000000000000000000",
      "type": "0x2",
      "transactionHash": "0xbc3b051a3aba6f4213ee5b0929e5c056584fa5c65ed6d24d8e93e4f1e0b20bd2",
      "transactionIndex": "0x6",
      "blockHash": "0x2098f0bd2e34d630047ee7f81d8d57a87b2085685b8e79c79cacaaf39fbeba83",
      "blockNumber": "0x1847740",
      "gasUsed": "0xb627",
      "effectiveGasPrice": "0xf4415",
      "from": "0x28fe8942e15964ec788c3a2422c324275ab5b334",
      "to": "0x4a881a666157427641f4f3455b7bd287496ecf2f",
      "contractAddress": null,
      "l1BaseFeeScalar": "0x44d",
      "l1BlobBaseFee": "0x1",
      "l1BlobBaseFeeScalar": "0xa118b",
      "l1Fee": "0x67fae77",
      "l1GasPrice": "0x37f6480",
      "l1GasUsed": "0x697"
    },
    {
      "status": "0x1",
      "cumulativeGasUsed": "0x5f4654",
      "logs": [
        {
          "address": "0x4a881a666157427641f4f3455b7bd287496ecf2f",
          "topics": [
            "0x8d32db8be4214ad2a32e6ae8c7dc8dbc43aff8635779cdc39abaf9d4d82929aa"
          ],
          "data": "0x00000000000000000000000047f1a7278bd070f800af14145b2df0b27be50e710000000000000000000000000000000000000000000000000000000000000040000000000000000000000000000000000000000000000000000000000000000b4b616c626f6e6174696373000000000000000000000000000000000000000000",
          "blockHash": "0xef9dff94497800bd8cba830e4d446f1a298e716395283f885df070083c76f11d",
          "blockNumber": "0x1847741",
          "blockTimestamp": "0x681c4d62",
          "transactionHash": "0x14604f9bafdb7c56432192d0b7b0748c36cecfbcd80c03f9bd299f1c69484340",
          "transactionIndex": "0x1e",
          "logIndex": "0x43",
          "removed": false
        }
      ],
      "logsBloom": "0x00000000000000000000008000000000000000000000000000000000000000000000000000000000000000000000000000000000000000000000000004000000000000000000000000000000000000000000000000000000020008000000000000000000000000000000000000000000000000000000000000000000000000000000000000000000000000000000000000000000000000000000000002000000000000000000000000000000000000000000000000001000000000000000000000000000000000000000000000000000000000000000000000000000000000000000000000000000000000000000000000000000000000000000000000000000",
      "type": "0x2",
      "transactionHash": "0x14604f9bafdb7c56432192d0b7b0748c36cecfbcd80c03f9bd299f1c69484340",
      "transactionIndex": "0x1e",
      "blockHash": "0xef9dff94497800bd8cba830e4d446f1a298e716395283f885df070083c76f11d",
      "blockNumber": "0x1847741",
      "gasUsed": "0xb627",
      "effectiveGasPrice": "0xf4414",
      "from": "0x28fe8942e15964ec788c3a2422c324275ab5b334",
      "to": "0x4a881a666157427641f4f3455b7bd287496ecf2f",
      "contractAddress": null,
      "l1BaseFeeScalar": "0x44d",
      "l1BlobBaseFee": "0x1",
      "l1BlobBaseFeeScalar": "0xa118b",
      "l1Fee": "0x68ce036",
      "l1GasPrice": "0x37f6480",
      "l1GasUsed": "0x6a4"
    },
    {
      "status": "0x1",
      "cumulativeGasUsed": "0x3e4443",
      "logs": [
        {
          "address": "0x4a881a666157427641f4f3455b7bd287496ecf2f",
          "topics": [
            "0x8d32db8be4214ad2a32e6ae8c7dc8dbc43aff8635779cdc39abaf9d4d82929aa"
          ],
          "data": "0x0000000000000000000000007cf798af67d469b4cc92afbc1499c57b6477b2d4000000000000000000000000000000000000000000000000000000000000004000000000000000000000000000000000000000000000000000000000000000045377617000000000000000000000000000000000000000000000000000000000",
          "blockHash": "0x852c70ebe203cff35571b5b55c6cfa6357f3979781c9948457af413521e324c4",
          "blockNumber": "0x1847743",
          "blockTimestamp": "0x681c4d66",
          "transactionHash": "0xe92f3907067daa64b9825a63cdcf5f9970861cfdf28257a9c73bbde674535184",
          "transactionIndex": "0x15",
          "logIndex": "0x55",
          "removed": false
        }
      ],
      "logsBloom": "0x00000000000000000000008000000000000000000000000000000000000000000000000000000000000000000000000000000000000000000000000004000000000000000000000000000000000000000000000000000000020008000000000000000000000000000000000000000000000000000000000000000000000000000000000000000000000000000000000000000000000000000000000002000000000000000000000000000000000000000000000000001000000000000000000000000000000000000000000000000000000000000000000000000000000000000000000000000000000000000000000000000000000000000000000000000000",
      "type": "0x2",
      "transactionHash": "0xe92f3907067daa64b9825a63cdcf5f9970861cfdf28257a9c73bbde674535184",
      "transactionIndex": "0x15",
      "blockHash": "0x852c70ebe203cff35571b5b55c6cfa6357f3979781c9948457af413521e324c4",
      "blockNumber": "0x1847743",
      "gasUsed": "0xb5df",
      "effectiveGasPrice": "0xf4414",
      "from": "0x28fe8942e15964ec788c3a2422c324275ab5b334",
      "to": "0x4a881a666157427641f4f3455b7bd287496ecf2f",
      "contractAddress": null,
      "l1BaseFeeScalar": "0x44d",
      "l1BlobBaseFee": "0x1",
      "l1BlobBaseFeeScalar": "0xa118b",
      "l1Fee": "0x64631bc",
      "l1GasPrice": "0x38ba49a",
      "l1GasUsed": "0x647"
    },
    {
      "status": "0x1",
      "cumulativeGasUsed": "0x7dbf2",
      "logs": [
        {
          "address": "0x4a881a666157427641f4f3455b7bd287496ecf2f",
          "topics": [
            "0x8d32db8be4214ad2a32e6ae8c7dc8dbc43aff8635779cdc39abaf9d4d82929aa"
          ],
          "data": "0x0000000000000000000000001d43ab9c23347a2cca11a33432396e85117b4cf7000000000000000000000000000000000000000000000000000000000000004000000000000000000000000000000000000000000000000000000000000000085472656173757279000000000000000000000000000000000000000000000000",
          "blockHash": "0xce091af02e87385ce8f79a3aac750d0fb556c93147096bfb3b29f4076e103b84",
          "blockNumber": "0x1847745",
          "blockTimestamp": "0x681c4d6a",
          "transactionHash": "0x9df182dbc9f0c6344afd585ed49329177b0e9ea48b27de30995982cf12c33816",
          "transactionIndex": "0x8",
          "logIndex": "0x6",
          "removed": false
        }
      ],
      "logsBloom": "0x00000000000000000000008000000000000000000000000000000000000000000000000000000000000000000000000000000000000000000000000004000000000000000000000000000000000000000000000000000000020008000000000000000000000000000000000000000000000000000000000000000000000000000000000000000000000000000000000000000000000000000000000002000000000000000000000000000000000000000000000000001000000000000000000000000000000000000000000000000000000000000000000000000000000000000000000000000000000000000000000000000000000000000000000000000000",
      "type": "0x2",
      "transactionHash": "0x9df182dbc9f0c6344afd585ed49329177b0e9ea48b27de30995982cf12c33816",
      "transactionIndex": "0x8",
      "blockHash": "0xce091af02e87385ce8f79a3aac750d0fb556c93147096bfb3b29f4076e103b84",
      "blockNumber": "0x1847745",
      "gasUsed": "0xb60f",
      "effectiveGasPrice": "0xf4414",
      "from": "0x28fe8942e15964ec788c3a2422c324275ab5b334",
      "to": "0x4a881a666157427641f4f3455b7bd287496ecf2f",
      "contractAddress": null,
      "l1BaseFeeScalar": "0x44d",
      "l1BlobBaseFee": "0x1",
      "l1BlobBaseFeeScalar": "0xa118b",
      "l1Fee": "0x67bb192",
      "l1GasPrice": "0x38ba49a",
      "l1GasUsed": "0x67c"
    }
  ],
  "libraries": [],
  "pending": [],
  "returns": {},
  "timestamp": 1746685291,
  "chain": 84532,
  "commit": "e1af6fa"
}