{
  "transactions": [
    {
      "hash": "0xd58c70616fed8eaebacc3164ab4a8d901be99e2b85cc941f5956d62ff15903e3",
      "transactionType": "CREATE",
      "contractName": "Registry",
      "contractAddress": "0x40a8d9ef71c4d75c82fd0ba52e4e823c1cea8502",
      "function": null,
      "arguments": null,
      "transaction": {
        "from": "0x28fe8942e15964ec788c3a2422c324275ab5b334",
        "gas": "0x356ce",
        "value": "0x0",
        "input": "0x60808060405234601557610214908161001a8239f35b5f80fdfe60806040526004361015610011575f80fd5b5f3560e01c806304433bbc1461010157631b1c2c7f1461002f575f80fd5b346100fd5760403660031901126100fd576004356001600160a01b038116908190036100fd576024359067ffffffffffffffff82116100fd5760606100997f8d32db8be4214ad2a32e6ae8c7dc8dbc43aff8635779cdc39abaf9d4d82929aa933690600401610162565b91604051835190602081818701938085835e81015f815203019020826bffffffffffffffffffffffff60a01b8254161790556040519384928352604060208401525180918160408501528484015e5f828201840152601f01601f19168101030190a1005b5f80fd5b346100fd5760203660031901126100fd5760043567ffffffffffffffff81116100fd576101346020913690600401610162565b8160405191805191829101835e5f90820190815281900382019020546040516001600160a01b039091168152f35b81601f820112156100fd5780359067ffffffffffffffff82116101ca5760405192601f8301601f19908116603f0116840167ffffffffffffffff8111858210176101ca57604052828452602083830101116100fd57815f926020809301838601378301015290565b634e487b7160e01b5f52604160045260245ffdfea264697066735822122043694cafe6190e9a1f6a1d33c775f0c3cacea8aa3a8d81569127211e5a0db89e64736f6c634300081c0033",
        "nonce": "0x2a",
        "chainId": "0x14a34"
      },
      "additionalContracts": [],
      "isFixedGasLimit": false
    },
    {
      "hash": "0x12af3eb02bc68eb02c0c026d6f07f35ca7e60d7abbe6bb35ce795ea695c66dd4",
      "transactionType": "CREATE",
      "contractName": "KalboToken",
      "contractAddress": "0x3b18e46e0c03534fd84334e2208a9537bc530dfd",
      "function": null,
      "arguments": null,
      "transaction": {
        "from": "0x28fe8942e15964ec788c3a2422c324275ab5b334",
        "gas": "0x9c5a4",
        "value": "0x0",
        "input": "0x6080604052346103b857604080519081016001600160401b038111828210176102cb576040908152600b82526a25b0b63137902a37b5b2b760a91b602083015280519081016001600160401b038111828210176102cb5760405260058152644b414c424f60d81b602082015281516001600160401b0381116102cb57600354600181811c911680156103ae575b60208210146102ad57601f811161034b575b50602092601f82116001146102ea57928192935f926102df575b50508160011b915f199060031b1c1916176003555b80516001600160401b0381116102cb57600454600181811c911680156102c1575b60208210146102ad57601f811161024a575b50602091601f82116001146101ea579181925f926101df575b50508160011b915f199060031b1c1916176004555b33156101cc576002546c0c9f2c9cd04674edea4000000081018091116101b857600255335f525f60205260405f206c0c9f2c9cd04674edea4000000081540190556040516c0c9f2c9cd04674edea4000000081525f7fddf252ad1be2c89b69c2b068fc378daa952ba7f163c4a11628f55a4df523b3ef60203393a360405161060790816103bd8239f35b634e487b7160e01b5f52601160045260245ffd5b63ec442f0560e01b5f525f60045260245ffd5b015190505f80610119565b601f1982169260045f52805f20915f5b8581106102325750836001951061021a575b505050811b0160045561012e565b01515f1960f88460031b161c191690555f808061020c565b919260206001819286850151815501940192016101fa565b60045f527f8a35acfbc15ff81a39ae7d344fd709f28e8600b4aa8c65c6b64bfe7fe36bd19b601f830160051c810191602084106102a3575b601f0160051c01905b8181106102985750610100565b5f815560010161028b565b9091508190610282565b634e487b7160e01b5f52602260045260245ffd5b90607f16906100ee565b634e487b7160e01b5f52604160045260245ffd5b015190505f806100b8565b601f1982169360035f52805f20915f5b868110610333575083600195961061031b575b505050811b016003556100cd565b01515f1960f88460031b161c191690555f808061030d565b919260206001819286850151815501940192016102fa565b60035f527fc2575a0e9e593c00f959f8c92f12db2869c3395a3b0502d05e2516446f71f85b601f830160051c810191602084106103a4575b601f0160051c01905b818110610399575061009e565b5f815560010161038c565b9091508190610383565b90607f169061008c565b5f80fdfe6080806040526004361015610012575f80fd5b5f3560e01c90816306fdde03146103ef57508063095ea7b31461036d57806318160ddd1461035057806323b872dd14610271578063313ce5671461025657806370a082311461021f57806395d89b4114610104578063a9059cbb146100d35763dd62ed3e1461007f575f80fd5b346100cf5760403660031901126100cf576100986104e8565b6100a06104fe565b6001600160a01b039182165f908152600160209081526040808320949093168252928352819020549051908152f35b5f80fd5b346100cf5760403660031901126100cf576100f96100ef6104e8565b6024359033610514565b602060405160018152f35b346100cf575f3660031901126100cf576040515f6004548060011c90600181168015610215575b602083108114610201578285529081156101e55750600114610190575b50819003601f01601f191681019067ffffffffffffffff82118183101761017c57610178829182604052826104be565b0390f35b634e487b7160e01b5f52604160045260245ffd5b905060045f527f8a35acfbc15ff81a39ae7d344fd709f28e8600b4aa8c65c6b64bfe7fe36bd19b5f905b8282106101cf57506020915082010182610148565b60018160209254838588010152019101906101ba565b90506020925060ff191682840152151560051b82010182610148565b634e487b7160e01b5f52602260045260245ffd5b91607f169161012b565b346100cf5760203660031901126100cf576001600160a01b036102406104e8565b165f525f602052602060405f2054604051908152f35b346100cf575f3660031901126100cf57602060405160128152f35b346100cf5760603660031901126100cf5761028a6104e8565b6102926104fe565b6001600160a01b0382165f818152600160209081526040808320338452909152902054909260443592915f1981106102d0575b506100f99350610514565b83811061033557841561032257331561030f576100f9945f52600160205260405f2060018060a01b0333165f526020528360405f2091039055846102c5565b634a1406b160e11b5f525f60045260245ffd5b63e602df0560e01b5f525f60045260245ffd5b8390637dc7a0d960e11b5f523360045260245260445260645ffd5b346100cf575f3660031901126100cf576020600254604051908152f35b346100cf5760403660031901126100cf576103866104e8565b602435903315610322576001600160a01b031690811561030f57335f52600160205260405f20825f526020528060405f20556040519081527f8c5be1e5ebec7d5bd14f71427d1e84f3dd0314c0f7b2291e5b200ac8c7c3b92560203392a3602060405160018152f35b346100cf575f3660031901126100cf575f6003548060011c906001811680156104b4575b602083108114610201578285529081156101e5575060011461045f5750819003601f01601f191681019067ffffffffffffffff82118183101761017c57610178829182604052826104be565b905060035f527fc2575a0e9e593c00f959f8c92f12db2869c3395a3b0502d05e2516446f71f85b5f905b82821061049e57506020915082010182610148565b6001816020925483858801015201910190610489565b91607f1691610413565b602060409281835280519182918282860152018484015e5f828201840152601f01601f1916010190565b600435906001600160a01b03821682036100cf57565b602435906001600160a01b03821682036100cf57565b6001600160a01b03169081156105be576001600160a01b03169182156105ab57815f525f60205260405f205481811061059257817fddf252ad1be2c89b69c2b068fc378daa952ba7f163c4a11628f55a4df523b3ef92602092855f525f84520360405f2055845f525f825260405f20818154019055604051908152a3565b8263391434e360e21b5f5260045260245260445260645ffd5b63ec442f0560e01b5f525f60045260245ffd5b634b637e8f60e11b5f525f60045260245ffdfea264697066735822122017a19901e1b913d80c42c728db9acb9118c7f5ea28f4b8aea4022f7148c0019a64736f6c634300081c0033",
        "nonce": "0x2b",
        "chainId": "0x14a34"
      },
      "additionalContracts": [],
      "isFixedGasLimit": false
    },
    {
      "hash": "0xb00495ba0da1086e58a41f9a85148882b017d00395bc5ef2eae5314c134c92c2",
      "transactionType": "CREATE",
      "contractName": "Kalbonatics",
      "contractAddress": "0x2bd5a78cc8f0fd56ac98c368619b1bdb2bba9915",
      "function": null,
      "arguments": null,
      "transaction": {
        "from": "0x28fe8942e15964ec788c3a2422c324275ab5b334",
        "gas": "0x757e2",
        "value": "0x0",
        "input": "0x608080604052346026575f80546001600160a01b03191633179055610552908161002b8239f35b5f80fdfe60806040526004361015610011575f80fd5b5f5f3560e01c80634cae76e51461034e5780635ab1bd53146103265780638da5cb5b146102ff578063915eb32f146100fe578063a91ee0dc146100a45763f1dfaefb1461005c575f80fd5b346100a15760203660031901126100a1576004359067ffffffffffffffff82116100a15760206100976100923660048601610400565b61048e565b6040519015158152f35b80fd5b50346100a15760203660031901126100a1576004356001600160a01b038116908190036100fa576100df60018060a01b038354163314610456565b6bffffffffffffffffffffffff60a01b600254161760025580f35b5080fd5b5034610275576040366003190112610275576004359060243567ffffffffffffffff811161027557610134903690600401610400565b61013d8161048e565b156102bb57600254604051630110ceef60e21b81526020600482018190526008602483015267547265617375727960c01b60448301529091829060649082906001600160a01b03165afa90811561026a575f91610279575b506001600160a01b0316803b15610275575f809160246040518094819363129364e760e01b83528960048401525af1801561026a57610233575b5060807fc58c4ab37af31c696b1f32fde0c1801a4f66ac10706e94d51b822c3ae8f9f4299293602060405193849283526060828401528051918291826060860152018484015e8181018301869052336040830152601f01601f19168101030190a180f35b7fc58c4ab37af31c696b1f32fde0c1801a4f66ac10706e94d51b822c3ae8f9f42992505f610260916103ca565b60805f92506101cf565b6040513d5f823e3d90fd5b5f80fd5b90506020813d6020116102b3575b81610294602093836103ca565b8101031261027557516001600160a01b0381168103610275575f610195565b3d9150610287565b606460405162461bcd60e51b815260206004820152602060248201527f496e707574206d7573742062652027484541445327206f7220275441494c53276044820152fd5b34610275575f366003190112610275575f546040516001600160a01b039091168152602090f35b34610275575f366003190112610275576002546040516001600160a01b039091168152602090f35b34610275576040366003190112610275576004356024356001600160a01b03811690819003610275577fa777690876f80b969fc64a2ea006e665f426114859e785ef63df3222320f50ea916040916103b060018060a01b035f54163314610456565b805f52600160205281835f205582519182526020820152a1005b90601f8019910116810190811067ffffffffffffffff8211176103ec57604052565b634e487b7160e01b5f52604160045260245ffd5b81601f820112156102755780359067ffffffffffffffff82116103ec5760405192610435601f8401601f1916602001856103ca565b8284526020838301011161027557815f926020809301838601378301015290565b1561045d57565b60405162461bcd60e51b81526020600482015260096024820152682737ba1037bbb732b960b91b6044820152606490fd5b6040516104ba6020828180820195805191829101875e81015f838201520301601f1981018352826103ca565b519020604051602081019064484541445360d81b8252600581526104df6025826103ca565b5190206040516020810190645441494c5360d81b8252600581526105046025826103ca565b51902090821491821561051657505090565b1491905056fea2646970667358221220cc0d5f540d1b56917b20c92e65a9c96bc30dc6055788cb3a591257317bb8b9eb64736f6c634300081c0033",
        "nonce": "0x2c",
        "chainId": "0x14a34"
      },
      "additionalContracts": [],
      "isFixedGasLimit": false
    },
    {
      "hash": "0xe5e3a1b52142b28a345a66d8536f77ee802e2c58b53cf80bd97f6aa753d596ad",
      "transactionType": "CREATE",
      "contractName": "Swap",
      "contractAddress": "0xe1f0f6327ed6f184ed604fcb6fee4d459ba265d1",
      "function": null,
      "arguments": null,
      "transaction": {
        "from": "0x28fe8942e15964ec788c3a2422c324275ab5b334",
        "gas": "0x1f5c6",
        "value": "0x0",
        "input": "0x6080806040523460135760d2908160188239f35b5f80fdfe60808060405260043610156011575f80fd5b5f3560e01c9081633fb5c1cb1460865781638381f58a14606f575063d09de08a146039575f80fd5b34606b575f366003190112606b575f545f1981146057576001015f55005b634e487b7160e01b5f52601160045260245ffd5b5f80fd5b34606b575f366003190112606b576020905f548152f35b34606b576020366003190112606b576004355f5500fea2646970667358221220928291e609600d778e0a1ac081fe829f9603d8fd238a3e6fcfe3fcf6b885b4c164736f6c634300081c0033",
        "nonce": "0x2d",
        "chainId": "0x14a34"
      },
      "additionalContracts": [],
      "isFixedGasLimit": false
    },
    {
      "hash": "0x533017653a1e95bf3a221743d0acbb2941a6c0374aee6942f5b4372d6acf28a0",
      "transactionType": "CREATE",
      "contractName": "Treasury",
      "contractAddress": "0x990c89ad053dcdbb614b0cceab4425d363cf7019",
      "function": null,
      "arguments": null,
      "transaction": {
        "from": "0x28fe8942e15964ec788c3a2422c324275ab5b334",
        "gas": "0x4b8b9",
        "value": "0x0",
        "input": "0x608080604052346026575f80546001600160a01b031916331790556102ef908161002b8239f35b5f80fdfe6080806040526004361015610012575f80fd5b5f3560e01c908163129364e71461011f575080635ab1bd53146100f75780638da5cb5b146100d05763a91ee0dc14610048575f80fd5b346100cc5760203660031901126100cc576004356001600160a01b038116908190036100cc575f546001600160a01b0316330361009b576bffffffffffffffffffffffff60a01b60015416176001555f80f35b60405162461bcd60e51b81526020600482015260096024820152682737ba1037bbb732b960b91b6044820152606490fd5b5f80fd5b346100cc575f3660031901126100cc575f546040516001600160a01b039091168152602090f35b346100cc575f3660031901126100cc576001546040516001600160a01b039091168152602090f35b346100cc5760203660031901126100cc57600154630110ceef60e21b825260206004838101829052600a60248501526925b0b63137aa37b5b2b760b11b6044850152359291829060649082906001600160a01b03165afa908115610235575f91610240575b506040516323b872dd60e01b81523360048201523060248201526044810183905290602090829060649082905f906001600160a01b03165af18015610235576101fa575b7f67ce3d90ef45e07d828e2b81c2e77a2046c12fce812035188a9756b09f43b9856040838151908152336020820152a1005b6020813d60201161022d575b8161021360209383610283565b810103126100cc575180151581036100cc575060406101c8565b3d9150610206565b6040513d5f823e3d90fd5b90506020813d60201161027b575b8161025b60209383610283565b810103126100cc57516001600160a01b03811681036100cc576020610184565b3d915061024e565b90601f8019910116810190811067ffffffffffffffff8211176102a557604052565b634e487b7160e01b5f52604160045260245ffdfea26469706673582212201eb5b52e2747ec6572ee075e452274c75a2d48c0e7b29e74416961a57eba640564736f6c634300081c0033",
        "nonce": "0x2e",
        "chainId": "0x14a34"
      },
      "additionalContracts": [],
      "isFixedGasLimit": false
    },
    {
      "hash": "0x430927609c045051c6ca66ce134d1eefb63b80b6ffa050effd091c454962e89d",
      "transactionType": "CALL",
      "contractName": "Registry",
      "contractAddress": "0x40a8d9ef71c4d75c82fd0ba52e4e823c1cea8502",
      "function": "setContract(address,string)",
      "arguments": [
        "0x40a8d9eF71C4d75c82FD0bA52E4E823C1CEA8502",
        "Registry"
      ],
      "transaction": {
        "from": "0x28fe8942e15964ec788c3a2422c324275ab5b334",
        "to": "0x40a8d9ef71c4d75c82fd0ba52e4e823c1cea8502",
        "gas": "0xfb76",
        "value": "0x0",
        "input": "0x1b1c2c7f00000000000000000000000040a8d9ef71c4d75c82fd0ba52e4e823c1cea8502000000000000000000000000000000000000000000000000000000000000004000000000000000000000000000000000000000000000000000000000000000085265676973747279000000000000000000000000000000000000000000000000",
        "nonce": "0x2f",
        "chainId": "0x14a34"
      },
      "additionalContracts": [],
      "isFixedGasLimit": false
    },
    {
      "hash": "0xad302bcc43fe865bd71020fbb894bd11a041ad8b39173358b6c53ae8241e7664",
      "transactionType": "CALL",
      "contractName": "Registry",
      "contractAddress": "0x40a8d9ef71c4d75c82fd0ba52e4e823c1cea8502",
      "function": "setContract(address,string)",
      "arguments": [
        "0x3B18e46E0C03534FD84334e2208A9537bc530dFd",
        "KalboToken"
      ],
      "transaction": {
        "from": "0x28fe8942e15964ec788c3a2422c324275ab5b334",
        "to": "0x40a8d9ef71c4d75c82fd0ba52e4e823c1cea8502",
        "gas": "0xfb98",
        "value": "0x0",
        "input": "0x1b1c2c7f0000000000000000000000003b18e46e0c03534fd84334e2208a9537bc530dfd0000000000000000000000000000000000000000000000000000000000000040000000000000000000000000000000000000000000000000000000000000000a4b616c626f546f6b656e00000000000000000000000000000000000000000000",
        "nonce": "0x30",
        "chainId": "0x14a34"
      },
      "additionalContracts": [],
      "isFixedGasLimit": false
    },
    {
      "hash": "0x98fe3652e328af5a8b31df5288126951870025de75c56c0731e620519441ff9b",
      "transactionType": "CALL",
      "contractName": "Registry",
      "contractAddress": "0x40a8d9ef71c4d75c82fd0ba52e4e823c1cea8502",
      "function": "setContract(address,string)",
      "arguments": [
        "0x2Bd5A78cc8F0FD56ac98c368619B1bdB2Bba9915",
        "Kalbonatics"
      ],
      "transaction": {
        "from": "0x28fe8942e15964ec788c3a2422c324275ab5b334",
        "to": "0x40a8d9ef71c4d75c82fd0ba52e4e823c1cea8502",
        "gas": "0x10a76",
        "value": "0x0",
        "input": "0x1b1c2c7f0000000000000000000000002bd5a78cc8f0fd56ac98c368619b1bdb2bba99150000000000000000000000000000000000000000000000000000000000000040000000000000000000000000000000000000000000000000000000000000000b4b616c626f6e6174696373000000000000000000000000000000000000000000",
        "nonce": "0x31",
        "chainId": "0x14a34"
      },
      "additionalContracts": [],
      "isFixedGasLimit": false
    },
    {
      "hash": "0xfb11580b9ca6e21691d38b8c81f7c2f975fb0a263d7278460b223ecf10236c05",
      "transactionType": "CALL",
      "contractName": "Registry",
      "contractAddress": "0x40a8d9ef71c4d75c82fd0ba52e4e823c1cea8502",
      "function": "setContract(address,string)",
      "arguments": [
        "0xE1f0F6327eD6F184ed604fcb6fee4D459BA265d1",
        "Swap"
      ],
      "transaction": {
        "from": "0x28fe8942e15964ec788c3a2422c324275ab5b334",
        "to": "0x40a8d9ef71c4d75c82fd0ba52e4e823c1cea8502",
        "gas": "0xfb34",
        "value": "0x0",
        "input": "0x1b1c2c7f000000000000000000000000e1f0f6327ed6f184ed604fcb6fee4d459ba265d1000000000000000000000000000000000000000000000000000000000000004000000000000000000000000000000000000000000000000000000000000000045377617000000000000000000000000000000000000000000000000000000000",
        "nonce": "0x32",
        "chainId": "0x14a34"
      },
      "additionalContracts": [],
      "isFixedGasLimit": false
    },
    {
      "hash": "0x2dc85e1d83ae63093c8a0a5f5bc000747ea36a2308c391d525efea95bd176c77",
      "transactionType": "CALL",
      "contractName": "Registry",
      "contractAddress": "0x40a8d9ef71c4d75c82fd0ba52e4e823c1cea8502",
      "function": "setContract(address,string)",
      "arguments": [
        "0x990c89ad053DcdBb614b0ccEaB4425D363cF7019",
        "Treasury"
      ],
      "transaction": {
        "from": "0x28fe8942e15964ec788c3a2422c324275ab5b334",
        "to": "0x40a8d9ef71c4d75c82fd0ba52e4e823c1cea8502",
        "gas": "0xfb76",
        "value": "0x0",
        "input": "0x1b1c2c7f000000000000000000000000990c89ad053dcdbb614b0cceab4425d363cf7019000000000000000000000000000000000000000000000000000000000000004000000000000000000000000000000000000000000000000000000000000000085472656173757279000000000000000000000000000000000000000000000000",
        "nonce": "0x33",
        "chainId": "0x14a34"
      },
      "additionalContracts": [],
      "isFixedGasLimit": false
    },
    {
      "hash": "0xd6b55173a05c25940129b19d2a069ec4e0cd2a3a4bf2c2015a86aafdd6a23c9f",
      "transactionType": "CALL",
      "contractName": "Kalbonatics",
      "contractAddress": "0x2bd5a78cc8f0fd56ac98c368619b1bdb2bba9915",
      "function": "setRegistry(address)",
      "arguments": [
        "0x40a8d9eF71C4d75c82FD0bA52E4E823C1CEA8502"
      ],
      "transaction": {
        "from": "0x28fe8942e15964ec788c3a2422c324275ab5b334",
        "to": "0x2bd5a78cc8f0fd56ac98c368619b1bdb2bba9915",
        "gas": "0xf820",
        "value": "0x0",
        "input": "0xa91ee0dc00000000000000000000000040a8d9ef71c4d75c82fd0ba52e4e823c1cea8502",
        "nonce": "0x34",
        "chainId": "0x14a34"
      },
      "additionalContracts": [],
      "isFixedGasLimit": false
    },
    {
      "hash": "0xb75ce85ab62845b1eb4e7d24dc9b7eef4f8d82be75dcf7d0e5111dda9c1a881a",
      "transactionType": "CALL",
      "contractName": "Treasury",
      "contractAddress": "0x990c89ad053dcdbb614b0cceab4425d363cf7019",
      "function": "setRegistry(address)",
      "arguments": [
        "0x40a8d9eF71C4d75c82FD0bA52E4E823C1CEA8502"
      ],
      "transaction": {
        "from": "0x28fe8942e15964ec788c3a2422c324275ab5b334",
        "to": "0x990c89ad053dcdbb614b0cceab4425d363cf7019",
        "gas": "0xf7df",
        "value": "0x0",
        "input": "0xa91ee0dc00000000000000000000000040a8d9ef71c4d75c82fd0ba52e4e823c1cea8502",
        "nonce": "0x35",
        "chainId": "0x14a34"
      },
      "additionalContracts": [],
      "isFixedGasLimit": false
    }
  ],
  "receipts": [
    {
      "status": "0x1",
      "cumulativeGasUsed": "0x11f8557",
      "logs": [],
      "logsBloom": "0x00000000000000000000000000000000000000000000000000000000000000000000000000000000000000000000000000000000000000000000000000000000000000000000000000000000000000000000000000000000000000000000000000000000000000000000000000000000000000000000000000000000000000000000000000000000000000000000000000000000000000000000000000000000000000000000000000000000000000000000000000000000000000000000000000000000000000000000000000000000000000000000000000000000000000000000000000000000000000000000000000000000000000000000000000000000",
      "type": "0x2",
      "transactionHash": "0xd58c70616fed8eaebacc3164ab4a8d901be99e2b85cc941f5956d62ff15903e3",
      "transactionIndex": "0x1a",
      "blockHash": "0x472c5bb8889b49eb74ecd0e415b1a1803e575b70ac3f01fa8d15d2b21c0ee802",
      "blockNumber": "0x1847bb0",
      "gasUsed": "0x2918b",
      "effectiveGasPrice": "0xeb035",
      "from": "0x28fe8942e15964ec788c3a2422c324275ab5b334",
      "to": null,
      "contractAddress": "0x40a8d9ef71c4d75c82fd0ba52e4e823c1cea8502",
      "l1BaseFeeScalar": "0x44d",
      "l1BlobBaseFee": "0x1",
      "l1BlobBaseFeeScalar": "0xa118b",
      "l1Fee": "0x763478d0",
      "l1GasPrice": "0xf1aa3a9",
      "l1GasUsed": "0x1bc4"
    },
    {
      "status": "0x1",
      "cumulativeGasUsed": "0x125cdb2",
      "logs": [
        {
          "address": "0x3b18e46e0c03534fd84334e2208a9537bc530dfd",
          "topics": [
            "0xddf252ad1be2c89b69c2b068fc378daa952ba7f163c4a11628f55a4df523b3ef",
            "0x0000000000000000000000000000000000000000000000000000000000000000",
            "0x00000000000000000000000028fe8942e15964ec788c3a2422c324275ab5b334"
          ],
          "data": "0x000000000000000000000000000000000000000c9f2c9cd04674edea40000000",
          "blockHash": "0x7add6ef21531554b0421ee326d91b30731898dd2adb5601453ae67356975077e",
          "blockNumber": "0x1847bb2",
          "blockTimestamp": "0x681c5644",
          "transactionHash": "0x12af3eb02bc68eb02c0c026d6f07f35ca7e60d7abbe6bb35ce795ea695c66dd4",
          "transactionIndex": "0x15",
          "logIndex": "0x145",
          "removed": false
        }
      ],
      "logsBloom": "0x00000000000000000000000000000000100000200000000000000000000000000000000000004000000000000000000400000000000000000000000000000000000000000000000000000008000000000000000000000000000000000000000000000000020000000000000000000880000000000000000000000010000000000000000000000000000020000000000000000000000000000000000000000000000000000000000000000000000000000000000000000000000000000000000000000002000000000000000000000000000000000000000000000000000020000000000000000000000000000000000000000000000000000000000000000000",
      "type": "0x2",
      "transactionHash": "0x12af3eb02bc68eb02c0c026d6f07f35ca7e60d7abbe6bb35ce795ea695c66dd4",
      "transactionIndex": "0x15",
      "blockHash": "0x7add6ef21531554b0421ee326d91b30731898dd2adb5601453ae67356975077e",
      "blockNumber": "0x1847bb2",
      "gasUsed": "0x78457",
      "effectiveGasPrice": "0xeb035",
      "from": "0x28fe8942e15964ec788c3a2422c324275ab5b334",
      "to": null,
      "contractAddress": "0x3b18e46e0c03534fd84334e2208a9537bc530dfd",
      "l1BaseFeeScalar": "0x44d",
      "l1BlobBaseFee": "0x1",
      "l1BlobBaseFeeScalar": "0xa118b",
      "l1Fee": "0x198a3132d",
      "l1GasPrice": "0xfcf2d8f",
      "l1GasUsed": "0x5bb4"
    },
    {
      "status": "0x1",
      "cumulativeGasUsed": "0x14f3fc3",
      "logs": [],
      "logsBloom": "0x00000000000000000000000000000000000000000000000000000000000000000000000000000000000000000000000000000000000000000000000000000000000000000000000000000000000000000000000000000000000000000000000000000000000000000000000000000000000000000000000000000000000000000000000000000000000000000000000000000000000000000000000000000000000000000000000000000000000000000000000000000000000000000000000000000000000000000000000000000000000000000000000000000000000000000000000000000000000000000000000000000000000000000000000000000000",
      "type": "0x2",
      "transactionHash": "0xb00495ba0da1086e58a41f9a85148882b017d00395bc5ef2eae5314c134c92c2",
      "transactionIndex": "0x18",
      "blockHash": "0xa14e80dfe3748af07b53af1cff195266c148239d75236104ebcb6f829f72630d",
      "blockNumber": "0x1847bb4",
      "gasUsed": "0x5a611",
      "effectiveGasPrice": "0xeb035",
      "from": "0x28fe8942e15964ec788c3a2422c324275ab5b334",
      "to": null,
      "contractAddress": "0x2bd5a78cc8f0fd56ac98c368619b1bdb2bba9915",
      "l1BaseFeeScalar": "0x44d",
      "l1BlobBaseFee": "0x1",
      "l1BlobBaseFeeScalar": "0xa118b",
      "l1Fee": "0x10d5357a7",
      "l1GasPrice": "0xfcf2d8f",
      "l1GasUsed": "0x3c71"
    },
    {
      "status": "0x1",
      "cumulativeGasUsed": "0x2ffef",
      "logs": [],
      "logsBloom": "0x00000000000000000000000000000000000000000000000000000000000000000000000000000000000000000000000000000000000000000000000000000000000000000000000000000000000000000000000000000000000000000000000000000000000000000000000000000000000000000000000000000000000000000000000000000000000000000000000000000000000000000000000000000000000000000000000000000000000000000000000000000000000000000000000000000000000000000000000000000000000000000000000000000000000000000000000000000000000000000000000000000000000000000000000000000000",
      "type": "0x2",
      "transactionHash": "0xe5e3a1b52142b28a345a66d8536f77ee802e2c58b53cf80bd97f6aa753d596ad",
      "transactionIndex": "0x2",
      "blockHash": "0xb38c78c0b06d3bcb7c488a65132e290493fabd346da29459ba56531125b5ba1f",
      "blockNumber": "0x1847bb6",
      "gasUsed": "0x181fb",
      "effectiveGasPrice": "0xeb035",
      "from": "0x28fe8942e15964ec788c3a2422c324275ab5b334",
      "to": null,
      "contractAddress": "0xe1f0f6327ed6f184ed604fcb6fee4d459ba265d1",
      "l1BaseFeeScalar": "0x44d",
      "l1BlobBaseFee": "0x1",
      "l1BlobBaseFeeScalar": "0xa118b",
      "l1Fee": "0x3be47787",
      "l1GasPrice": "0xfcf2d8f",
      "l1GasUsed": "0xd70"
    },
    {
      "status": "0x1",
      "cumulativeGasUsed": "0x3f6212",
      "logs": [],
      "logsBloom": "0x00000000000000000000000000000000000000000000000000000000000000000000000000000000000000000000000000000000000000000000000000000000000000000000000000000000000000000000000000000000000000000000000000000000000000000000000000000000000000000000000000000000000000000000000000000000000000000000000000000000000000000000000000000000000000000000000000000000000000000000000000000000000000000000000000000000000000000000000000000000000000000000000000000000000000000000000000000000000000000000000000000000000000000000000000000000",
      "type": "0x2",
      "transactionHash": "0x533017653a1e95bf3a221743d0acbb2941a6c0374aee6942f5b4372d6acf28a0",
      "transactionIndex": "0x19",
      "blockHash": "0x17c6ad9e6c29e6270f1ff2e5de6bcfbd71d6014ba1d850139966818ebee4d974",
      "blockNumber": "0x1847bb7",
      "gasUsed": "0x3a1ca",
      "effectiveGasPrice": "0xeb036",
      "from": "0x28fe8942e15964ec788c3a2422c324275ab5b334",
      "to": null,
      "contractAddress": "0x990c89ad053dcdbb614b0cceab4425d363cf7019",
      "l1BaseFeeScalar": "0x44d",
      "l1BlobBaseFee": "0x1",
      "l1BlobBaseFeeScalar": "0xa118b",
      "l1Fee": "0xa0ff829f",
      "l1GasPrice": "0xfcf2d8f",
      "l1GasUsed": "0x2421"
    },
    {
      "status": "0x1",
      "cumulativeGasUsed": "0x13c11df",
      "logs": [
        {
          "address": "0x40a8d9ef71c4d75c82fd0ba52e4e823c1cea8502",
          "topics": [
            "0x8d32db8be4214ad2a32e6ae8c7dc8dbc43aff8635779cdc39abaf9d4d82929aa"
          ],
          "data": "0x00000000000000000000000040a8d9ef71c4d75c82fd0ba52e4e823c1cea8502000000000000000000000000000000000000000000000000000000000000004000000000000000000000000000000000000000000000000000000000000000085265676973747279000000000000000000000000000000000000000000000000",
          "blockHash": "0x32e576db8ea99bd47f77f56c9a1fb91f39fee3c32cb881527f10e8f7c3782fd9",
          "blockNumber": "0x1847bb8",
          "blockTimestamp": "0x681c5650",
          "transactionHash": "0x430927609c045051c6ca66ce134d1eefb63b80b6ffa050effd091c454962e89d",
          "transactionIndex": "0x15",
          "logIndex": "0x16b",
          "removed": false
        }
      ],
      "logsBloom": "0x00000080000000000000008000000000000000000000000000000000000000000000000000000000000000000000000000002000000000000000000000000000000000000000000000000000000000000000000000000000020008000000000000000000000000000000000000000000000000000000000000000000000000000000000000000000000000000000000000000000000000000000000000000000000000000000000000000000000000000000000000000000000000000000000000000000000000000000000000000000000000000000000000000000000000000080000000000000000000000000000000000000000000000000000000000000",
      "type": "0x2",
      "transactionHash": "0x430927609c045051c6ca66ce134d1eefb63b80b6ffa050effd091c454962e89d",
      "transactionIndex": "0x15",
      "blockHash": "0x32e576db8ea99bd47f77f56c9a1fb91f39fee3c32cb881527f10e8f7c3782fd9",
      "blockNumber": "0x1847bb8",
      "gasUsed": "0xb60f",
      "effectiveGasPrice": "0xeb035",
      "from": "0x28fe8942e15964ec788c3a2422c324275ab5b334",
      "to": "0x40a8d9ef71c4d75c82fd0ba52e4e823c1cea8502",
      "contractAddress": null,
      "l1BaseFeeScalar": "0x44d",
      "l1BlobBaseFee": "0x1",
      "l1BlobBaseFeeScalar": "0xa118b",
      "l1Fee": "0x1c766ac5",
      "l1GasPrice": "0x10283fb8",
      "l1GasUsed": "0x640"
    },
    {
      "status": "0x1",
      "cumulativeGasUsed": "0x22b348",
      "logs": [
        {
          "address": "0x40a8d9ef71c4d75c82fd0ba52e4e823c1cea8502",
          "topics": [
            "0x8d32db8be4214ad2a32e6ae8c7dc8dbc43aff8635779cdc39abaf9d4d82929aa"
          ],
          "data": "0x0000000000000000000000003b18e46e0c03534fd84334e2208a9537bc530dfd0000000000000000000000000000000000000000000000000000000000000040000000000000000000000000000000000000000000000000000000000000000a4b616c626f546f6b656e00000000000000000000000000000000000000000000",
          "blockHash": "0x03e93c71dc8951f6c77d25043a3c250417a111411c460632453f6e93fc485149",
          "blockNumber": "0x1847bb9",
          "blockTimestamp": "0x681c5652",
          "transactionHash": "0xad302bcc43fe865bd71020fbb894bd11a041ad8b39173358b6c53ae8241e7664",
          "transactionIndex": "0x15",
          "logIndex": "0x28",
          "removed": false
        }
      ],
      "logsBloom": "0x00000080000000000000008000000000000000000000000000000000000000000000000000000000000000000000000000002000000000000000000000000000000000000000000000000000000000000000000000000000020008000000000000000000000000000000000000000000000000000000000000000000000000000000000000000000000000000000000000000000000000000000000000000000000000000000000000000000000000000000000000000000000000000000000000000000000000000000000000000000000000000000000000000000000000000080000000000000000000000000000000000000000000000000000000000000",
      "type": "0x2",
      "transactionHash": "0xad302bcc43fe865bd71020fbb894bd11a041ad8b39173358b6c53ae8241e7664",
      "transactionIndex": "0x15",
      "blockHash": "0x03e93c71dc8951f6c77d25043a3c250417a111411c460632453f6e93fc485149",
      "blockNumber": "0x1847bb9",
      "gasUsed": "0xb627",
      "effectiveGasPrice": "0xeb036",
      "from": "0x28fe8942e15964ec788c3a2422c324275ab5b334",
      "to": "0x40a8d9ef71c4d75c82fd0ba52e4e823c1cea8502",
      "contractAddress": null,
      "l1BaseFeeScalar": "0x44d",
      "l1BlobBaseFee": "0x1",
      "l1BlobBaseFeeScalar": "0xa118b",
      "l1Fee": "0x1e055753",
      "l1GasPrice": "0x10283fb8",
      "l1GasUsed": "0x697"
    },
    {
      "status": "0x1",
      "cumulativeGasUsed": "0x8145bf",
      "logs": [
        {
          "address": "0x40a8d9ef71c4d75c82fd0ba52e4e823c1cea8502",
          "topics": [
            "0x8d32db8be4214ad2a32e6ae8c7dc8dbc43aff8635779cdc39abaf9d4d82929aa"
          ],
          "data": "0x0000000000000000000000002bd5a78cc8f0fd56ac98c368619b1bdb2bba99150000000000000000000000000000000000000000000000000000000000000040000000000000000000000000000000000000000000000000000000000000000b4b616c626f6e6174696373000000000000000000000000000000000000000000",
          "blockHash": "0xd1fe6bada3cf724d8102916789765c31d840f4ca1f349bcd5cad37a913729623",
          "blockNumber": "0x1847bbb",
          "blockTimestamp": "0x681c5656",
          "transactionHash": "0x98fe3652e328af5a8b31df5288126951870025de75c56c0731e620519441ff9b",
          "transactionIndex": "0x23",
          "logIndex": "0xe8",
          "removed": false
        }
      ],
      "logsBloom": "0x00000080000000000000008000000000000000000000000000000000000000000000000000000000000000000000000000002000000000000000000000000000000000000000000000000000000000000000000000000000020008000000000000000000000000000000000000000000000000000000000000000000000000000000000000000000000000000000000000000000000000000000000000000000000000000000000000000000000000000000000000000000000000000000000000000000000000000000000000000000000000000000000000000000000000000080000000000000000000000000000000000000000000000000000000000000",
      "type": "0x2",
      "transactionHash": "0x98fe3652e328af5a8b31df5288126951870025de75c56c0731e620519441ff9b",
      "transactionIndex": "0x23",
      "blockHash": "0xd1fe6bada3cf724d8102916789765c31d840f4ca1f349bcd5cad37a913729623",
      "blockNumber": "0x1847bbb",
      "gasUsed": "0xb633",
      "effectiveGasPrice": "0xeb036",
      "from": "0x28fe8942e15964ec788c3a2422c324275ab5b334",
      "to": "0x40a8d9ef71c4d75c82fd0ba52e4e823c1cea8502",
      "contractAddress": null,
      "l1BaseFeeScalar": "0x44d",
      "l1BlobBaseFee": "0x1",
      "l1BlobBaseFeeScalar": "0xa118b",
      "l1Fee": "0x1e7f3e2d",
      "l1GasPrice": "0x10283fb8",
      "l1GasUsed": "0x6b2"
    },
    {
      "status": "0x1",
      "cumulativeGasUsed": "0x39034",
      "logs": [
        {
          "address": "0x40a8d9ef71c4d75c82fd0ba52e4e823c1cea8502",
          "topics": [
            "0x8d32db8be4214ad2a32e6ae8c7dc8dbc43aff8635779cdc39abaf9d4d82929aa"
          ],
          "data": "0x000000000000000000000000e1f0f6327ed6f184ed604fcb6fee4d459ba265d1000000000000000000000000000000000000000000000000000000000000004000000000000000000000000000000000000000000000000000000000000000045377617000000000000000000000000000000000000000000000000000000000",
          "blockHash": "0x9a031d4e6ca5e9ef89bb2a5eaa503b0ecdf6db1d3f156ac97da5c7d14f48047e",
          "blockNumber": "0x1847bbd",
          "blockTimestamp": "0x681c565a",
          "transactionHash": "0xfb11580b9ca6e21691d38b8c81f7c2f975fb0a263d7278460b223ecf10236c05",
          "transactionIndex": "0x4",
          "logIndex": "0x5",
          "removed": false
        }
      ],
      "logsBloom": "0x00000080000000000000008000000000000000000000000000000000000000000000000000000000000000000000000000002000000000000000000000000000000000000000000000000000000000000000000000000000020008000000000000000000000000000000000000000000000000000000000000000000000000000000000000000000000000000000000000000000000000000000000000000000000000000000000000000000000000000000000000000000000000000000000000000000000000000000000000000000000000000000000000000000000000000080000000000000000000000000000000000000000000000000000000000000",
      "type": "0x2",
      "transactionHash": "0xfb11580b9ca6e21691d38b8c81f7c2f975fb0a263d7278460b223ecf10236c05",
      "transactionIndex": "0x4",
      "blockHash": "0x9a031d4e6ca5e9ef89bb2a5eaa503b0ecdf6db1d3f156ac97da5c7d14f48047e",
      "blockNumber": "0x1847bbd",
      "gasUsed": "0xb5df",
      "effectiveGasPrice": "0xeb037",
      "from": "0x28fe8942e15964ec788c3a2422c324275ab5b334",
      "to": "0x40a8d9ef71c4d75c82fd0ba52e4e823c1cea8502",
      "contractAddress": null,
      "l1BaseFeeScalar": "0x44d",
      "l1BlobBaseFee": "0x1",
      "l1BlobBaseFeeScalar": "0xa118b",
      "l1Fee": "0x1c97a2c6",
      "l1GasPrice": "0x10283fb8",
      "l1GasUsed": "0x647"
    },
    {
      "status": "0x1",
      "cumulativeGasUsed": "0x4c0cae",
      "logs": [
        {
          "address": "0x40a8d9ef71c4d75c82fd0ba52e4e823c1cea8502",
          "topics": [
            "0x8d32db8be4214ad2a32e6ae8c7dc8dbc43aff8635779cdc39abaf9d4d82929aa"
          ],
          "data": "0x000000000000000000000000990c89ad053dcdbb614b0cceab4425d363cf7019000000000000000000000000000000000000000000000000000000000000004000000000000000000000000000000000000000000000000000000000000000085472656173757279000000000000000000000000000000000000000000000000",
          "blockHash": "0x68128f6f69e05d80841a92b47e0f7eeb6ce29eb9775600e5eeff5e984014310a",
          "blockNumber": "0x1847bbe",
          "blockTimestamp": "0x681c565c",
          "transactionHash": "0x2dc85e1d83ae63093c8a0a5f5bc000747ea36a2308c391d525efea95bd176c77",
          "transactionIndex": "0x20",
          "logIndex": "0x7e",
          "removed": false
        }
      ],
      "logsBloom": "0x00000080000000000000008000000000000000000000000000000000000000000000000000000000000000000000000000002000000000000000000000000000000000000000000000000000000000000000000000000000020008000000000000000000000000000000000000000000000000000000000000000000000000000000000000000000000000000000000000000000000000000000000000000000000000000000000000000000000000000000000000000000000000000000000000000000000000000000000000000000000000000000000000000000000000000080000000000000000000000000000000000000000000000000000000000000",
      "type": "0x2",
      "transactionHash": "0x2dc85e1d83ae63093c8a0a5f5bc000747ea36a2308c391d525efea95bd176c77",
      "transactionIndex": "0x20",
      "blockHash": "0x68128f6f69e05d80841a92b47e0f7eeb6ce29eb9775600e5eeff5e984014310a",
      "blockNumber": "0x1847bbe",
      "gasUsed": "0xb60f",
      "effectiveGasPrice": "0xeb037",
      "from": "0x28fe8942e15964ec788c3a2422c324275ab5b334",
      "to": "0x40a8d9ef71c4d75c82fd0ba52e4e823c1cea8502",
      "contractAddress": null,
      "l1BaseFeeScalar": "0x44d",
      "l1BlobBaseFee": "0x1",
      "l1BlobBaseFeeScalar": "0xa118b",
      "l1Fee": "0x1da7aa37",
      "l1GasPrice": "0x1037af4a",
      "l1GasUsed": "0x67c"
    },
    {
      "status": "0x1",
      "cumulativeGasUsed": "0x114fe9",
      "logs": [],
      "logsBloom": "0x00000000000000000000000000000000000000000000000000000000000000000000000000000000000000000000000000000000000000000000000000000000000000000000000000000000000000000000000000000000000000000000000000000000000000000000000000000000000000000000000000000000000000000000000000000000000000000000000000000000000000000000000000000000000000000000000000000000000000000000000000000000000000000000000000000000000000000000000000000000000000000000000000000000000000000000000000000000000000000000000000000000000000000000000000000000",
      "type": "0x2",
      "transactionHash": "0xd6b55173a05c25940129b19d2a069ec4e0cd2a3a4bf2c2015a86aafdd6a23c9f",
      "transactionIndex": "0x8",
      "blockHash": "0xcb0ec419b1b03c8968117381441f4166d0402ff6371eb4db42657fa4725ac390",
      "blockNumber": "0x1847bc0",
      "gasUsed": "0xb3a4",
      "effectiveGasPrice": "0xeb037",
      "from": "0x28fe8942e15964ec788c3a2422c324275ab5b334",
      "to": "0x2bd5a78cc8f0fd56ac98c368619b1bdb2bba9915",
      "contractAddress": null,
      "l1BaseFeeScalar": "0x44d",
      "l1BlobBaseFee": "0x1",
      "l1BlobBaseFeeScalar": "0xa118b",
      "l1Fee": "0x1c919bdb",
      "l1GasPrice": "0x1037af4a",
      "l1GasUsed": "0x640"
    },
    {
      "status": "0x1",
      "cumulativeGasUsed": "0x11c793",
      "logs": [],
      "logsBloom": "0x00000000000000000000000000000000000000000000000000000000000000000000000000000000000000000000000000000000000000000000000000000000000000000000000000000000000000000000000000000000000000000000000000000000000000000000000000000000000000000000000000000000000000000000000000000000000000000000000000000000000000000000000000000000000000000000000000000000000000000000000000000000000000000000000000000000000000000000000000000000000000000000000000000000000000000000000000000000000000000000000000000000000000000000000000000000",
      "type": "0x2",
      "transactionHash": "0xb75ce85ab62845b1eb4e7d24dc9b7eef4f8d82be75dcf7d0e5111dda9c1a881a",
      "transactionIndex": "0x7",
      "blockHash": "0x7da0c2d8e55703684b3c992b0caa877755520ad425912d26453ce92287ba0d26",
      "blockNumber": "0x1847bc2",
      "gasUsed": "0xb375",
      "effectiveGasPrice": "0xeb037",
      "from": "0x28fe8942e15964ec788c3a2422c324275ab5b334",
      "to": "0x990c89ad053dcdbb614b0cceab4425d363cf7019",
      "contractAddress": null,
      "l1BaseFeeScalar": "0x44d",
      "l1BlobBaseFee": "0x1",
      "l1BlobBaseFeeScalar": "0xa118b",
      "l1Fee": "0x1c919bdb",
      "l1GasPrice": "0x1037af4a",
      "l1GasUsed": "0x640"
    }
  ],
  "libraries": [],
  "pending": [],
  "returns": {},
  "timestamp": 1746687590,
  "chain": 84532,
  "commit": "2cdf220"
}